{
  "contractName": "Certificate",
  "abi": [
    {
      "anonymous": false,
      "inputs": [
        {
          "indexed": false,
          "internalType": "string",
          "name": "studentID",
          "type": "string"
        },
        {
          "indexed": false,
          "internalType": "string",
          "name": "certificateHash",
          "type": "string"
        },
        {
          "indexed": false,
          "internalType": "uint256",
          "name": "timestamp",
          "type": "uint256"
        }
      ],
      "name": "CertificateAdded",
      "type": "event"
    },
    {
      "inputs": [
        {
          "internalType": "string",
          "name": "",
          "type": "string"
        }
      ],
      "name": "certificates",
      "outputs": [
        {
          "internalType": "string",
          "name": "studentID",
          "type": "string"
        },
        {
          "internalType": "string",
          "name": "certificateHash",
          "type": "string"
        },
        {
          "internalType": "uint256",
          "name": "timestamp",
          "type": "uint256"
        }
      ],
      "stateMutability": "view",
      "type": "function",
      "constant": true
    },
    {
      "inputs": [
        {
          "internalType": "string",
          "name": "_studentID",
          "type": "string"
        },
        {
          "internalType": "string",
          "name": "_certificateHash",
          "type": "string"
        }
      ],
      "name": "addCertificate",
      "outputs": [],
      "stateMutability": "nonpayable",
      "type": "function"
    },
    {
      "inputs": [
        {
          "internalType": "string",
          "name": "_studentID",
          "type": "string"
        },
        {
          "internalType": "string",
          "name": "_certificateHash",
          "type": "string"
        }
      ],
      "name": "verifyCertificate",
      "outputs": [
        {
          "internalType": "bool",
          "name": "",
          "type": "bool"
        }
      ],
      "stateMutability": "view",
      "type": "function",
      "constant": true
    }
  ],
  "bytecode": "0x608060405234801561001057600080fd5b506109ee806100206000396000f3fe608060405234801561001057600080fd5b50600436106100415760003560e01c80632751f71b146100465780638f2b91ea14610076578063e24f2ce7146100a8575b600080fd5b610060600480360381019061005b9190610646565b6100c4565b60405161006d91906107b7565b60405180910390f35b610090600480360381019061008b9190610605565b61027c565b60405161009f939291906107d2565b60405180910390f35b6100c260048036038101906100bd9190610646565b6103cc565b005b6000806000846040516100d791906107a0565b908152602001604051809103902060405180606001604052908160008201805461010090610917565b80601f016020809104026020016040519081016040528092919081815260200182805461012c90610917565b80156101795780601f1061014e57610100808354040283529160200191610179565b820191906000526020600020905b81548152906001019060200180831161015c57829003601f168201915b5050505050815260200160018201805461019290610917565b80601f01602080910402602001604051908101604052809291908181526020018280546101be90610917565b801561020b5780601f106101e05761010080835404028352916020019161020b565b820191906000526020600020905b8154815290600101906020018083116101ee57829003601f168201915b5050505050815260200160028201548152505090508260405160200161023191906107a0565b60405160208183030381529060405280519060200120816020015160405160200161025c91906107a0565b604051602081830303815290604052805190602001201491505092915050565b6000818051602081018201805184825260208301602085012081835280955050505050506000915090508060000180546102b590610917565b80601f01602080910402602001604051908101604052809291908181526020018280546102e190610917565b801561032e5780601f106103035761010080835404028352916020019161032e565b820191906000526020600020905b81548152906001019060200180831161031157829003601f168201915b50505050509080600101805461034390610917565b80601f016020809104026020016040519081016040528092919081815260200182805461036f90610917565b80156103bc5780601f10610391576101008083540402835291602001916103bc565b820191906000526020600020905b81548152906001019060200180831161039f57829003601f168201915b5050505050908060020154905083565b600080836040516103dd91906107a0565b908152602001604051809103902060000180546103f990610917565b90501461043b576040517f08c379a000000000000000000000000000000000000000000000000000000000815260040161043290610817565b60405180910390fd5b60405180606001604052808381526020018281526020014281525060008360405161046691906107a0565b908152602001604051809103902060008201518160000190805190602001906104909291906104fa565b5060208201518160010190805190602001906104ad9291906104fa565b50604082015181600201559050507fe985e28caa301fce4a9731caaa48ca22260bfde4e71060a8d129c865075c465a8282426040516104ee939291906107d2565b60405180910390a15050565b82805461050690610917565b90600052602060002090601f016020900481019282610528576000855561056f565b82601f1061054157805160ff191683800117855561056f565b8280016001018555821561056f579182015b8281111561056e578251825591602001919060010190610553565b5b50905061057c9190610580565b5090565b5b80821115610599576000816000905550600101610581565b5090565b60006105b06105ab84610868565b610837565b9050828152602081018484840111156105c857600080fd5b6105d38482856108d5565b509392505050565b600082601f8301126105ec57600080fd5b81356105fc84826020860161059d565b91505092915050565b60006020828403121561061757600080fd5b600082013567ffffffffffffffff81111561063157600080fd5b61063d848285016105db565b91505092915050565b6000806040838503121561065957600080fd5b600083013567ffffffffffffffff81111561067357600080fd5b61067f858286016105db565b925050602083013567ffffffffffffffff81111561069c57600080fd5b6106a8858286016105db565b9150509250929050565b6106bb816108bf565b82525050565b60006106cc82610898565b6106d681856108a3565b93506106e68185602086016108e4565b6106ef816109a7565b840191505092915050565b600061070582610898565b61070f81856108b4565b935061071f8185602086016108e4565b80840191505092915050565b6000610738602e836108a3565b91507f436572746966696361746520666f7220746869732073747564656e742049442060008301527f616c7265616479206578697374730000000000000000000000000000000000006020830152604082019050919050565b61079a816108cb565b82525050565b60006107ac82846106fa565b915081905092915050565b60006020820190506107cc60008301846106b2565b92915050565b600060608201905081810360008301526107ec81866106c1565b9050818103602083015261080081856106c1565b905061080f6040830184610791565b949350505050565b600060208201905081810360008301526108308161072b565b9050919050565b6000604051905081810181811067ffffffffffffffff8211171561085e5761085d610978565b5b8060405250919050565b600067ffffffffffffffff82111561088357610882610978565b5b601f19601f8301169050602081019050919050565b600081519050919050565b600082825260208201905092915050565b600081905092915050565b60008115159050919050565b6000819050919050565b82818337600083830152505050565b60005b838110156109025780820151818401526020810190506108e7565b83811115610911576000848401525b50505050565b6000600282049050600182168061092f57607f821691505b6020821081141561094357610942610949565b5b50919050565b7f4e487b7100000000000000000000000000000000000000000000000000000000600052602260045260246000fd5b7f4e487b7100000000000000000000000000000000000000000000000000000000600052604160045260246000fd5b6000601f19601f830116905091905056fea2646970667358221220eb08845d8780afecca1d799af3192c683f3a0a57ea1acb8d3d98355f9fabe2ab64736f6c63430008000033",
  "immutableReferences": {},
  "source": "// SPDX-License-Identifier: MIT\r\npragma solidity ^0.8.0;\r\n\r\n// Smart contract  qun l v xc minh bng cp\r\ncontract Certificate {\r\n    // nh ngha cu trc d liu cho mt bng cp\r\n    struct Cert {\r\n        string studentID;        // M s sinh vin (kha chnh)\r\n        string certificateHash;  // Hash ca bng cp (SHA-256)\r\n        uint timestamp;         // Thi gian cp bng (Unix timestamp)\r\n    }\r\n\r\n    // nh x m s sinh vin vi thng tin bng cp\r\n    mapping(string => Cert) public certificates;\r\n\r\n    // S kin c pht ra khi mt bng cp mi c thm\r\n    event CertificateAdded(string studentID, string certificateHash, uint timestamp);\r\n\r\n    // Hm  thm mt bng cp mi vo Blockchain\r\n    function addCertificate(string memory _studentID, string memory _certificateHash) public {\r\n        // Kim tra nu m sinh vin  tn ti\r\n        require(bytes(certificates[_studentID].studentID).length == 0, \"Certificate for this student ID already exists\");\r\n\r\n        // Lu thng tin bng cp vo mapping\r\n        certificates[_studentID] = Cert(_studentID, _certificateHash, block.timestamp);\r\n\r\n        // Pht ra s kin  thng bo\r\n        emit CertificateAdded(_studentID, _certificateHash, block.timestamp);\r\n    }\r\n\r\n    // Hm  xc minh tnh hp l ca mt bng cp\r\n    function verifyCertificate(string memory _studentID, string memory _certificateHash) public view returns (bool) {\r\n        // Ly thng tin bng cp t mapping\r\n        Cert memory cert = certificates[_studentID];\r\n\r\n        // So snh hash c cung cp vi hash lu trn Blockchain\r\n        return keccak256(abi.encodePacked(cert.certificateHash)) == keccak256(abi.encodePacked(_certificateHash));\r\n    }\r\n}",
  "sourcePath": "E:\\1. fpt university\\Nghien cuu khoa hoc\\code\\nckh\\Blockchain\\contracts\\Certificate.sol",
  "compiler": {
    "name": "solc",
    "version": "0.8.0+commit.c7dfd78e.Emscripten.clang"
  },
  "schemaVersion": "3.4.16",
  "updatedAt": "2025-03-13T13:18:32.759Z",
  "networkType": "ethereum",
  "devdoc": {
    "kind": "dev",
    "methods": {},
    "version": 1
  },
  "userdoc": {
    "kind": "user",
    "methods": {},
    "version": 1
  }
}