{
  "contractName": "Certificate",
  "abi": [
    {
      "anonymous": false,
      "inputs": [
        {
          "indexed": false,
          "internalType": "string",
          "name": "studentID",
          "type": "string"
        },
        {
          "indexed": false,
          "internalType": "string",
          "name": "studentName",
          "type": "string"
        },
        {
          "indexed": false,
          "internalType": "string",
          "name": "certificateName",
          "type": "string"
        },
        {
          "indexed": false,
          "internalType": "uint256",
          "name": "issueDate",
          "type": "uint256"
        },
        {
          "indexed": false,
          "internalType": "string",
          "name": "issuedBy",
          "type": "string"
        },
        {
          "indexed": false,
          "internalType": "string",
          "name": "graduationGrade",
          "type": "string"
        },
        {
          "indexed": false,
          "internalType": "string",
          "name": "certificateHash",
          "type": "string"
        },
        {
          "indexed": false,
          "internalType": "uint256",
          "name": "timestamp",
          "type": "uint256"
        }
      ],
      "name": "CertificateAdded",
      "type": "event"
    },
    {
      "inputs": [
        {
          "internalType": "string",
          "name": "",
          "type": "string"
        }
      ],
      "name": "certificates",
      "outputs": [
        {
          "internalType": "string",
          "name": "studentID",
          "type": "string"
        },
        {
          "internalType": "string",
          "name": "studentName",
          "type": "string"
        },
        {
          "internalType": "string",
          "name": "certificateName",
          "type": "string"
        },
        {
          "internalType": "uint256",
          "name": "issueDate",
          "type": "uint256"
        },
        {
          "internalType": "string",
          "name": "issuedBy",
          "type": "string"
        },
        {
          "internalType": "string",
          "name": "graduationGrade",
          "type": "string"
        },
        {
          "internalType": "string",
          "name": "certificateHash",
          "type": "string"
        },
        {
          "internalType": "uint256",
          "name": "timestamp",
          "type": "uint256"
        }
      ],
      "stateMutability": "view",
      "type": "function",
      "constant": true
    },
    {
      "inputs": [
        {
          "internalType": "string",
          "name": "",
          "type": "string"
        }
      ],
      "name": "hashToStudent",
      "outputs": [
        {
          "internalType": "string",
          "name": "",
          "type": "string"
        }
      ],
      "stateMutability": "view",
      "type": "function",
      "constant": true
    },
    {
      "inputs": [
        {
          "internalType": "string",
          "name": "_studentID",
          "type": "string"
        },
        {
          "internalType": "string",
          "name": "_studentName",
          "type": "string"
        },
        {
          "internalType": "string",
          "name": "_certificateName",
          "type": "string"
        },
        {
          "internalType": "uint256",
          "name": "_issueDate",
          "type": "uint256"
        },
        {
          "internalType": "string",
          "name": "_issuedBy",
          "type": "string"
        },
        {
          "internalType": "string",
          "name": "_graduationGrade",
          "type": "string"
        },
        {
          "internalType": "string",
          "name": "_certificateHash",
          "type": "string"
        }
      ],
      "name": "addCertificate",
      "outputs": [],
      "stateMutability": "nonpayable",
      "type": "function"
    },
    {
      "inputs": [
        {
          "internalType": "string",
          "name": "_studentID",
          "type": "string"
        },
        {
          "internalType": "string",
          "name": "_certificateHash",
          "type": "string"
        }
      ],
      "name": "verifyCertificate",
      "outputs": [
        {
          "internalType": "bool",
          "name": "",
          "type": "bool"
        }
      ],
      "stateMutability": "view",
      "type": "function",
      "constant": true
    },
    {
      "inputs": [
        {
          "internalType": "string",
          "name": "_studentID",
          "type": "string"
        }
      ],
      "name": "getCertificate",
      "outputs": [
        {
          "internalType": "string",
          "name": "",
          "type": "string"
        },
        {
          "internalType": "string",
          "name": "",
          "type": "string"
        },
        {
          "internalType": "string",
          "name": "",
          "type": "string"
        },
        {
          "internalType": "uint256",
          "name": "",
          "type": "uint256"
        },
        {
          "internalType": "string",
          "name": "",
          "type": "string"
        },
        {
          "internalType": "string",
          "name": "",
          "type": "string"
        },
        {
          "internalType": "string",
          "name": "",
          "type": "string"
        },
        {
          "internalType": "uint256",
          "name": "",
          "type": "uint256"
        }
      ],
      "stateMutability": "view",
      "type": "function",
      "constant": true
    }
  ],
  "bytecode": "0x608060405234801561001057600080fd5b50611c8a806100206000396000f3fe608060405234801561001057600080fd5b50600436106100575760003560e01c80632751f71b1461005c578063593174bd1461008c5780638f2b91ea146100a8578063bb68e7a0146100df578063ed0f2e751461010f575b600080fd5b61007660048036038101906100719190611392565b610146565b6040516100839190611897565b60405180910390f35b6100a660048036038101906100a191906113fe565b610551565b005b6100c260048036038101906100bd9190611351565b6109a6565b6040516100d69897969594939291906118d4565b60405180910390f35b6100f960048036038101906100f49190611351565b610d34565b60405161010691906118b2565b60405180910390f35b61012960048036038101906101249190611351565b610dea565b60405161013d9897969594939291906118d4565b60405180910390f35b6000806000846040516101599190611880565b90815260200160405180910390206040518061010001604052908160008201805461018390611b9c565b80601f01602080910402602001604051908101604052809291908181526020018280546101af90611b9c565b80156101fc5780601f106101d1576101008083540402835291602001916101fc565b820191906000526020600020905b8154815290600101906020018083116101df57829003601f168201915b5050505050815260200160018201805461021590611b9c565b80601f016020809104026020016040519081016040528092919081815260200182805461024190611b9c565b801561028e5780601f106102635761010080835404028352916020019161028e565b820191906000526020600020905b81548152906001019060200180831161027157829003601f168201915b505050505081526020016002820180546102a790611b9c565b80601f01602080910402602001604051908101604052809291908181526020018280546102d390611b9c565b80156103205780601f106102f557610100808354040283529160200191610320565b820191906000526020600020905b81548152906001019060200180831161030357829003601f168201915b505050505081526020016003820154815260200160048201805461034390611b9c565b80601f016020809104026020016040519081016040528092919081815260200182805461036f90611b9c565b80156103bc5780601f10610391576101008083540402835291602001916103bc565b820191906000526020600020905b81548152906001019060200180831161039f57829003601f168201915b505050505081526020016005820180546103d590611b9c565b80601f016020809104026020016040519081016040528092919081815260200182805461040190611b9c565b801561044e5780601f106104235761010080835404028352916020019161044e565b820191906000526020600020905b81548152906001019060200180831161043157829003601f168201915b5050505050815260200160068201805461046790611b9c565b80601f016020809104026020016040519081016040528092919081815260200182805461049390611b9c565b80156104e05780601f106104b5576101008083540402835291602001916104e0565b820191906000526020600020905b8154815290600101906020018083116104c357829003601f168201915b505050505081526020016007820154815250509050826040516020016105069190611880565b604051602081830303815290604052805190602001208160c001516040516020016105319190611880565b604051602081830303815290604052805190602001201491505092915050565b6000875111610595576040517f08c379a000000000000000000000000000000000000000000000000000000000815260040161058c9061197c565b60405180910390fd5b60008651116105d9576040517f08c379a00000000000000000000000000000000000000000000000000000000081526004016105d0906119dc565b60405180910390fd5b600085511161061d576040517f08c379a000000000000000000000000000000000000000000000000000000000815260040161061490611a3c565b60405180910390fd5b60008411610660576040517f08c379a000000000000000000000000000000000000000000000000000000000815260040161065790611a7c565b60405180910390fd5b60008351116106a4576040517f08c379a000000000000000000000000000000000000000000000000000000000815260040161069b90611a5c565b60405180910390fd5b60008251116106e8576040517f08c379a00000000000000000000000000000000000000000000000000000000081526004016106df906119bc565b60405180910390fd5b600081511161072c576040517f08c379a000000000000000000000000000000000000000000000000000000000815260040161072390611a9c565b60405180910390fd5b6000808860405161073d9190611880565b9081526020016040518091039020600001805461075990611b9c565b90501461079b576040517f08c379a0000000000000000000000000000000000000000000000000000000008152600401610792906119fc565b60405180910390fd5b60006001826040516107ad9190611880565b908152602001604051809103902080546107c690611b9c565b905014610808576040517f08c379a00000000000000000000000000000000000000000000000000000000081526004016107ff9061199c565b60405180910390fd5b604051806101000160405280888152602001878152602001868152602001858152602001848152602001838152602001828152602001428152506000886040516108529190611880565b9081526020016040518091039020600082015181600001908051906020019061087c929190611231565b506020820151816001019080519060200190610899929190611231565b5060408201518160020190805190602001906108b6929190611231565b506060820151816003015560808201518160040190805190602001906108dd929190611231565b5060a08201518160050190805190602001906108fa929190611231565b5060c0820151816006019080519060200190610917929190611231565b5060e08201518160070155905050866001826040516109369190611880565b90815260200160405180910390209080519060200190610957929190611231565b507f5353b67434c16a063cd5b6f6716de7e47f5c7cc04bc13133e3fdd63a6c09013b87878787878787426040516109959897969594939291906118d4565b60405180910390a150505050505050565b6000818051602081018201805184825260208301602085012081835280955050505050506000915090508060000180546109df90611b9c565b80601f0160208091040260200160405190810160405280929190818152602001828054610a0b90611b9c565b8015610a585780601f10610a2d57610100808354040283529160200191610a58565b820191906000526020600020905b815481529060010190602001808311610a3b57829003601f168201915b505050505090806001018054610a6d90611b9c565b80601f0160208091040260200160405190810160405280929190818152602001828054610a9990611b9c565b8015610ae65780601f10610abb57610100808354040283529160200191610ae6565b820191906000526020600020905b815481529060010190602001808311610ac957829003601f168201915b505050505090806002018054610afb90611b9c565b80601f0160208091040260200160405190810160405280929190818152602001828054610b2790611b9c565b8015610b745780601f10610b4957610100808354040283529160200191610b74565b820191906000526020600020905b815481529060010190602001808311610b5757829003601f168201915b505050505090806003015490806004018054610b8f90611b9c565b80601f0160208091040260200160405190810160405280929190818152602001828054610bbb90611b9c565b8015610c085780601f10610bdd57610100808354040283529160200191610c08565b820191906000526020600020905b815481529060010190602001808311610beb57829003601f168201915b505050505090806005018054610c1d90611b9c565b80601f0160208091040260200160405190810160405280929190818152602001828054610c4990611b9c565b8015610c965780601f10610c6b57610100808354040283529160200191610c96565b820191906000526020600020905b815481529060010190602001808311610c7957829003601f168201915b505050505090806006018054610cab90611b9c565b80601f0160208091040260200160405190810160405280929190818152602001828054610cd790611b9c565b8015610d245780601f10610cf957610100808354040283529160200191610d24565b820191906000526020600020905b815481529060010190602001808311610d0757829003601f168201915b5050505050908060070154905088565b6001818051602081018201805184825260208301602085012081835280955050505050506000915090508054610d6990611b9c565b80601f0160208091040260200160405190810160405280929190818152602001828054610d9590611b9c565b8015610de25780601f10610db757610100808354040283529160200191610de2565b820191906000526020600020905b815481529060010190602001808311610dc557829003601f168201915b505050505081565b60608060606000606080606060008060008a604051610e099190611880565b908152602001604051809103902060405180610100016040529081600082018054610e3390611b9c565b80601f0160208091040260200160405190810160405280929190818152602001828054610e5f90611b9c565b8015610eac5780601f10610e8157610100808354040283529160200191610eac565b820191906000526020600020905b815481529060010190602001808311610e8f57829003601f168201915b50505050508152602001600182018054610ec590611b9c565b80601f0160208091040260200160405190810160405280929190818152602001828054610ef190611b9c565b8015610f3e5780601f10610f1357610100808354040283529160200191610f3e565b820191906000526020600020905b815481529060010190602001808311610f2157829003601f168201915b50505050508152602001600282018054610f5790611b9c565b80601f0160208091040260200160405190810160405280929190818152602001828054610f8390611b9c565b8015610fd05780601f10610fa557610100808354040283529160200191610fd0565b820191906000526020600020905b815481529060010190602001808311610fb357829003601f168201915b5050505050815260200160038201548152602001600482018054610ff390611b9c565b80601f016020809104026020016040519081016040528092919081815260200182805461101f90611b9c565b801561106c5780601f106110415761010080835404028352916020019161106c565b820191906000526020600020905b81548152906001019060200180831161104f57829003601f168201915b5050505050815260200160058201805461108590611b9c565b80601f01602080910402602001604051908101604052809291908181526020018280546110b190611b9c565b80156110fe5780601f106110d3576101008083540402835291602001916110fe565b820191906000526020600020905b8154815290600101906020018083116110e157829003601f168201915b5050505050815260200160068201805461111790611b9c565b80601f016020809104026020016040519081016040528092919081815260200182805461114390611b9c565b80156111905780601f1061116557610100808354040283529160200191611190565b820191906000526020600020905b81548152906001019060200180831161117357829003601f168201915b5050505050815260200160078201548152505090506000816000015151116111ed576040517f08c379a00000000000000000000000000000000000000000000000000000000081526004016111e490611a1c565b60405180910390fd5b806000015181602001518260400151836060015184608001518560a001518660c001518760e001519850985098509850985098509850985050919395975091939597565b82805461123d90611b9c565b90600052602060002090601f01602090048101928261125f57600085556112a6565b82601f1061127857805160ff19168380011785556112a6565b828001600101855582156112a6579182015b828111156112a557825182559160200191906001019061128a565b5b5090506112b391906112b7565b5090565b5b808211156112d05760008160009055506001016112b8565b5090565b60006112e76112e284611aed565b611abc565b9050828152602081018484840111156112ff57600080fd5b61130a848285611b5a565b509392505050565b600082601f83011261132357600080fd5b81356113338482602086016112d4565b91505092915050565b60008135905061134b81611c3d565b92915050565b60006020828403121561136357600080fd5b600082013567ffffffffffffffff81111561137d57600080fd5b61138984828501611312565b91505092915050565b600080604083850312156113a557600080fd5b600083013567ffffffffffffffff8111156113bf57600080fd5b6113cb85828601611312565b925050602083013567ffffffffffffffff8111156113e857600080fd5b6113f485828601611312565b9150509250929050565b600080600080600080600060e0888a03121561141957600080fd5b600088013567ffffffffffffffff81111561143357600080fd5b61143f8a828b01611312565b975050602088013567ffffffffffffffff81111561145c57600080fd5b6114688a828b01611312565b965050604088013567ffffffffffffffff81111561148557600080fd5b6114918a828b01611312565b95505060606114a28a828b0161133c565b945050608088013567ffffffffffffffff8111156114bf57600080fd5b6114cb8a828b01611312565b93505060a088013567ffffffffffffffff8111156114e857600080fd5b6114f48a828b01611312565b92505060c088013567ffffffffffffffff81111561151157600080fd5b61151d8a828b01611312565b91505092959891949750929550565b61153581611b44565b82525050565b600061154682611b1d565b6115508185611b28565b9350611560818560208601611b69565b61156981611c2c565b840191505092915050565b600061157f82611b1d565b6115898185611b39565b9350611599818560208601611b69565b80840191505092915050565b60006115b2601a83611b28565b91507f53747564656e742049442063616e6e6f7420626520656d7074790000000000006000830152602082019050919050565b60006115f2603383611b28565b91507f4365727469666963617465206861736820616c7265616479206578697374732060008301527f666f7220616e6f746865722073747564656e74000000000000000000000000006020830152604082019050919050565b6000611658602083611b28565b91507f47726164756174696f6e2067726164652063616e6e6f7420626520656d7074796000830152602082019050919050565b6000611698601c83611b28565b91507f53747564656e74206e616d652063616e6e6f7420626520656d707479000000006000830152602082019050919050565b60006116d8602e83611b28565b91507f436572746966696361746520666f7220746869732073747564656e742049442060008301527f616c7265616479206578697374730000000000000000000000000000000000006020830152604082019050919050565b600061173e601583611b28565b91507f4365727469666963617465206e6f7420666f756e6400000000000000000000006000830152602082019050919050565b600061177e602083611b28565b91507f4365727469666963617465206e616d652063616e6e6f7420626520656d7074796000830152602082019050919050565b60006117be601983611b28565b91507f4973737565642062792063616e6e6f7420626520656d707479000000000000006000830152602082019050919050565b60006117fe601883611b28565b91507f49737375652064617465206d7573742062652076616c696400000000000000006000830152602082019050919050565b600061183e602083611b28565b91507f436572746966696361746520686173682063616e6e6f7420626520656d7074796000830152602082019050919050565b61187a81611b50565b82525050565b600061188c8284611574565b915081905092915050565b60006020820190506118ac600083018461152c565b92915050565b600060208201905081810360008301526118cc818461153b565b905092915050565b60006101008201905081810360008301526118ef818b61153b565b90508181036020830152611903818a61153b565b90508181036040830152611917818961153b565b90506119266060830188611871565b8181036080830152611938818761153b565b905081810360a083015261194c818661153b565b905081810360c0830152611960818561153b565b905061196f60e0830184611871565b9998505050505050505050565b60006020820190508181036000830152611995816115a5565b9050919050565b600060208201905081810360008301526119b5816115e5565b9050919050565b600060208201905081810360008301526119d58161164b565b9050919050565b600060208201905081810360008301526119f58161168b565b9050919050565b60006020820190508181036000830152611a15816116cb565b9050919050565b60006020820190508181036000830152611a3581611731565b9050919050565b60006020820190508181036000830152611a5581611771565b9050919050565b60006020820190508181036000830152611a75816117b1565b9050919050565b60006020820190508181036000830152611a95816117f1565b9050919050565b60006020820190508181036000830152611ab581611831565b9050919050565b6000604051905081810181811067ffffffffffffffff82111715611ae357611ae2611bfd565b5b8060405250919050565b600067ffffffffffffffff821115611b0857611b07611bfd565b5b601f19601f8301169050602081019050919050565b600081519050919050565b600082825260208201905092915050565b600081905092915050565b60008115159050919050565b6000819050919050565b82818337600083830152505050565b60005b83811015611b87578082015181840152602081019050611b6c565b83811115611b96576000848401525b50505050565b60006002820490506001821680611bb457607f821691505b60208210811415611bc857611bc7611bce565b5b50919050565b7f4e487b7100000000000000000000000000000000000000000000000000000000600052602260045260246000fd5b7f4e487b7100000000000000000000000000000000000000000000000000000000600052604160045260246000fd5b6000601f19601f8301169050919050565b611c4681611b50565b8114611c5157600080fd5b5056fea26469706673582212204a2d46e1a12f547075c12cfd0990ca5abaeb8a57a2ad3c9c87ce8fb101f0247864736f6c63430008000033",
  "immutableReferences": {},
  "source": "// SPDX-License-Identifier: MIT\r\npragma solidity ^0.8.0;\r\n\r\n// Smart contract  qun l v xc minh bng cp\r\ncontract Certificate {\r\n    struct Cert {\r\n        string studentID;        \r\n        string studentName;      \r\n        string certificateName;  \r\n        uint issueDate;          \r\n        string issuedBy;         \r\n        string graduationGrade;  \r\n        string certificateHash;  \r\n        uint timestamp;          \r\n    }\r\n\r\n    // nh x m s sinh vin vi thng tin bng cp\r\n    mapping(string => Cert) public certificates;\r\n\r\n    // nh x t certificateHash n studentID  kim tra tnh duy nht ca certificateHash\r\n    mapping(string => string) public hashToStudent;\r\n\r\n    // S kin c pht ra khi mt bng cp mi c thm\r\n    event CertificateAdded(\r\n        string studentID,\r\n        string studentName,\r\n        string certificateName,\r\n        uint issueDate,\r\n        string issuedBy,\r\n        string graduationGrade,\r\n        string certificateHash,\r\n        uint timestamp\r\n    );\r\n\r\n    // Thm mt bng cp mi vo Blockchain\r\n    function addCertificate(\r\n        string memory _studentID,\r\n        string memory _studentName,\r\n        string memory _certificateName,\r\n        uint _issueDate,\r\n        string memory _issuedBy,\r\n        string memory _graduationGrade,\r\n        string memory _certificateHash\r\n    ) public {\r\n        // Kim tra u vo\r\n        require(bytes(_studentID).length > 0, \"Student ID cannot be empty\");\r\n        require(bytes(_studentName).length > 0, \"Student name cannot be empty\");\r\n        require(bytes(_certificateName).length > 0, \"Certificate name cannot be empty\");\r\n        require(_issueDate > 0, \"Issue date must be valid\");\r\n        require(bytes(_issuedBy).length > 0, \"Issued by cannot be empty\");\r\n        require(bytes(_graduationGrade).length > 0, \"Graduation grade cannot be empty\");\r\n        require(bytes(_certificateHash).length > 0, \"Certificate hash cannot be empty\");\r\n\r\n        // Kim tra nu m sinh vin  tn ti\r\n        require(bytes(certificates[_studentID].studentID).length == 0, \"Certificate for this student ID already exists\");\r\n\r\n        // Kim tra nu certificateHash  c s dng bi mt sinh vin khc\r\n        require(bytes(hashToStudent[_certificateHash]).length == 0, \"Certificate hash already exists for another student\");\r\n\r\n        // Lu thng tin bng cp vo mapping\r\n        certificates[_studentID] = Cert(\r\n            _studentID,\r\n            _studentName,\r\n            _certificateName,\r\n            _issueDate,\r\n            _issuedBy,\r\n            _graduationGrade,\r\n            _certificateHash,\r\n            block.timestamp\r\n        );\r\n\r\n        // Lu nh x certificateHash -> studentID  kim tra tnh duy nht\r\n        hashToStudent[_certificateHash] = _studentID;\r\n\r\n        // Pht ra s kin  thng bo\r\n        emit CertificateAdded(\r\n            _studentID,\r\n            _studentName,\r\n            _certificateName,\r\n            _issueDate,\r\n            _issuedBy,\r\n            _graduationGrade,\r\n            _certificateHash,\r\n            block.timestamp\r\n        );\r\n    }\r\n\r\n    // Xc minh tnh hp l ca mt bng cp\r\n    function verifyCertificate(string memory _studentID, string memory _certificateHash) public view returns (bool) {\r\n        // Ly thng tin bng cp t mapping\r\n        Cert memory cert = certificates[_studentID];\r\n\r\n        // So snh hash c cung cp vi hash lu trn Blockchain\r\n        return keccak256(abi.encodePacked(cert.certificateHash)) == keccak256(abi.encodePacked(_certificateHash));\r\n    }\r\n\r\n    // Ly thng tin bng cp\r\n    function getCertificate(string memory _studentID) public view returns (\r\n        string memory,\r\n        string memory,\r\n        string memory,\r\n        uint,\r\n        string memory,\r\n        string memory,\r\n        string memory,\r\n        uint\r\n    ) {\r\n        Cert memory cert = certificates[_studentID];\r\n        require(bytes(cert.studentID).length > 0, \"Certificate not found\");\r\n        return (\r\n            cert.studentID,\r\n            cert.studentName,\r\n            cert.certificateName,\r\n            cert.issueDate,\r\n            cert.issuedBy,\r\n            cert.graduationGrade,\r\n            cert.certificateHash,\r\n            cert.timestamp\r\n        );\r\n    }\r\n}",
  "sourcePath": "E:\\1. fpt university\\Nghien cuu khoa hoc\\code4\\nckh\\Blockchain\\contracts\\Certificate.sol",
  "compiler": {
    "name": "solc",
    "version": "0.8.0+commit.c7dfd78e.Emscripten.clang"
  },
  "schemaVersion": "3.4.16",
  "updatedAt": "2025-03-19T03:41:29.692Z",
  "networkType": "ethereum",
  "devdoc": {
    "kind": "dev",
    "methods": {},
    "version": 1
  },
  "userdoc": {
    "kind": "user",
    "methods": {},
    "version": 1
  }
}