{
  "contractName": "Certificate",
  "abi": [
    {
      "anonymous": false,
      "inputs": [
        {
          "indexed": false,
          "internalType": "bytes32",
          "name": "studentID",
          "type": "bytes32"
        },
        {
          "indexed": false,
          "internalType": "bytes32",
          "name": "studentName",
          "type": "bytes32"
        },
        {
          "indexed": false,
          "internalType": "bytes32",
          "name": "certificateName",
          "type": "bytes32"
        },
        {
          "indexed": false,
          "internalType": "uint256",
          "name": "issueDate",
          "type": "uint256"
        },
        {
          "indexed": false,
          "internalType": "bytes32",
          "name": "issuedBy",
          "type": "bytes32"
        },
        {
          "indexed": false,
          "internalType": "bytes32",
          "name": "graduationGrade",
          "type": "bytes32"
        },
        {
          "indexed": false,
          "internalType": "bytes32",
          "name": "certificateHash",
          "type": "bytes32"
        },
        {
          "indexed": false,
          "internalType": "uint256",
          "name": "timestamp",
          "type": "uint256"
        }
      ],
      "name": "CertificateAdded",
      "type": "event"
    },
    {
      "inputs": [
        {
          "internalType": "bytes32",
          "name": "",
          "type": "bytes32"
        }
      ],
      "name": "certificates",
      "outputs": [
        {
          "internalType": "bytes32",
          "name": "studentID",
          "type": "bytes32"
        },
        {
          "internalType": "bytes32",
          "name": "studentName",
          "type": "bytes32"
        },
        {
          "internalType": "bytes32",
          "name": "certificateName",
          "type": "bytes32"
        },
        {
          "internalType": "uint256",
          "name": "issueDate",
          "type": "uint256"
        },
        {
          "internalType": "bytes32",
          "name": "issuedBy",
          "type": "bytes32"
        },
        {
          "internalType": "bytes32",
          "name": "graduationGrade",
          "type": "bytes32"
        },
        {
          "internalType": "bytes32",
          "name": "certificateHash",
          "type": "bytes32"
        },
        {
          "internalType": "uint256",
          "name": "timestamp",
          "type": "uint256"
        }
      ],
      "stateMutability": "view",
      "type": "function"
    },
    {
      "inputs": [
        {
          "internalType": "bytes32",
          "name": "",
          "type": "bytes32"
        }
      ],
      "name": "hashToStudent",
      "outputs": [
        {
          "internalType": "bytes32",
          "name": "",
          "type": "bytes32"
        }
      ],
      "stateMutability": "view",
      "type": "function"
    },
    {
      "inputs": [
        {
          "internalType": "bytes32",
          "name": "_studentID",
          "type": "bytes32"
        }
      ],
      "name": "studentToHash",
      "outputs": [
        {
          "internalType": "bytes32",
          "name": "",
          "type": "bytes32"
        }
      ],
      "stateMutability": "view",
      "type": "function"
    },
    {
      "inputs": [
        {
          "internalType": "bytes32",
          "name": "_studentID",
          "type": "bytes32"
        },
        {
          "internalType": "bytes32",
          "name": "_studentName",
          "type": "bytes32"
        },
        {
          "internalType": "bytes32",
          "name": "_certificateName",
          "type": "bytes32"
        },
        {
          "internalType": "uint256",
          "name": "_issueDate",
          "type": "uint256"
        },
        {
          "internalType": "bytes32",
          "name": "_issuedBy",
          "type": "bytes32"
        },
        {
          "internalType": "bytes32",
          "name": "_graduationGrade",
          "type": "bytes32"
        }
      ],
      "name": "addCertificate",
      "outputs": [],
      "stateMutability": "nonpayable",
      "type": "function"
    },
    {
      "inputs": [
        {
          "internalType": "bytes32",
          "name": "_studentID",
          "type": "bytes32"
        },
        {
          "internalType": "bytes32",
          "name": "_certificateHash",
          "type": "bytes32"
        }
      ],
      "name": "verifyCertificate",
      "outputs": [
        {
          "internalType": "bool",
          "name": "",
          "type": "bool"
        }
      ],
      "stateMutability": "view",
      "type": "function"
    },
    {
      "inputs": [
        {
          "internalType": "bytes32",
          "name": "_studentID",
          "type": "bytes32"
        }
      ],
      "name": "getCertificate",
      "outputs": [
        {
          "internalType": "bytes32",
          "name": "",
          "type": "bytes32"
        },
        {
          "internalType": "bytes32",
          "name": "",
          "type": "bytes32"
        },
        {
          "internalType": "bytes32",
          "name": "",
          "type": "bytes32"
        },
        {
          "internalType": "uint256",
          "name": "",
          "type": "uint256"
        },
        {
          "internalType": "bytes32",
          "name": "",
          "type": "bytes32"
        },
        {
          "internalType": "bytes32",
          "name": "",
          "type": "bytes32"
        },
        {
          "internalType": "bytes32",
          "name": "",
          "type": "bytes32"
        },
        {
          "internalType": "uint256",
          "name": "",
          "type": "uint256"
        }
      ],
      "stateMutability": "view",
      "type": "function"
    }
  ],
  "bytecode": "0x608060405234801561001057600080fd5b50610e24806100206000396000f3fe608060405234801561001057600080fd5b50600436106100625760003560e01c80631f75435d14610067578063742f0688146100975780638984134b146100ce578063d20a70ee146100fe578063d818eedc1461011a578063f333fe081461014a575b600080fd5b610081600480360381019061007c919061078b565b610181565b60405161008e9190610ba7565b60405180910390f35b6100b160048036038101906100ac9190610762565b610204565b6040516100c5989796959493929190610bdd565b60405180910390f35b6100e860048036038101906100e39190610762565b61024c565b6040516100f59190610bc2565b60405180910390f35b610118600480360381019061011391906107c7565b61026b565b005b610134600480360381019061012f9190610762565b6105d5565b6040516101419190610bc2565b60405180910390f35b610164600480360381019061015f9190610762565b6105ed565b604051610178989796959493929190610bdd565b60405180910390f35b60008060008085815260200190815260200160002060405180610100016040529081600082015481526020016001820154815260200160028201548152602001600382015481526020016004820154815260200160058201548152602001600682015481526020016007820154815250509050828160c001511491505092915050565b60006020528060005260406000206000915090508060000154908060010154908060020154908060030154908060040154908060050154908060060154908060070154905088565b6000806000838152602001908152602001600020600601549050919050565b6000801b8614156102b1576040517f08c379a00000000000000000000000000000000000000000000000000000000081526004016102a890610c5b565b60405180910390fd5b6000801b8514156102f7576040517f08c379a00000000000000000000000000000000000000000000000000000000081526004016102ee90610cbb565b60405180910390fd5b6000801b84141561033d576040517f08c379a000000000000000000000000000000000000000000000000000000000815260040161033490610d1b565b60405180910390fd5b60008311610380576040517f08c379a000000000000000000000000000000000000000000000000000000000815260040161037790610d5b565b60405180910390fd5b6000801b8214156103c6576040517f08c379a00000000000000000000000000000000000000000000000000000000081526004016103bd90610d3b565b60405180910390fd5b6000801b81141561040c576040517f08c379a000000000000000000000000000000000000000000000000000000000815260040161040390610c9b565b60405180910390fd5b6000801b6000808881526020019081526020016000206000015414610466576040517f08c379a000000000000000000000000000000000000000000000000000000000815260040161045d90610cdb565b60405180910390fd5b60006104768787878787876106f9565b90506000801b6001600083815260200190815260200160002054146104d0576040517f08c379a00000000000000000000000000000000000000000000000000000000081526004016104c790610c7b565b60405180910390fd5b60405180610100016040528088815260200187815260200186815260200185815260200184815260200183815260200182815260200142815250600080898152602001908152602001600020600082015181600001556020820151816001015560408201518160020155606082015181600301556080820151816004015560a0820151816005015560c0820151816006015560e082015181600701559050508660016000838152602001908152602001600020819055507fb43d81c992c5e22b447922b149e52d1a0bc88ec4376e2b43b065a9da1936ec9787878787878787426040516105c4989796959493929190610bdd565b60405180910390a150505050505050565b60016020528060005260406000206000915090505481565b60008060008060008060008060008060008b8152602001908152602001600020604051806101000160405290816000820154815260200160018201548152602001600282015481526020016003820154815260200160048201548152602001600582015481526020016006820154815260200160078201548152505090506000801b816000015114156106b5576040517f08c379a00000000000000000000000000000000000000000000000000000000081526004016106ac90610cfb565b60405180910390fd5b806000015181602001518260400151836060015184608001518560a001518660c001518760e001519850985098509850985098509850985050919395975091939597565b600086868686868660405160200161071696959493929190610b37565b6040516020818303038152906040528051906020012090509695505050505050565b60008135905061074781610dc0565b92915050565b60008135905061075c81610dd7565b92915050565b60006020828403121561077457600080fd5b600061078284828501610738565b91505092915050565b6000806040838503121561079e57600080fd5b60006107ac85828601610738565b92505060206107bd85828601610738565b9150509250929050565b60008060008060008060c087890312156107e057600080fd5b60006107ee89828a01610738565b96505060206107ff89828a01610738565b955050604061081089828a01610738565b945050606061082189828a0161074d565b935050608061083289828a01610738565b92505060a061084389828a01610738565b9150509295509295509295565b61085981610d8c565b82525050565b61086881610d98565b82525050565b61087f61087a82610d98565b610dac565b82525050565b6000610892601a83610d7b565b91507f53747564656e742049442063616e6e6f7420626520656d7074790000000000006000830152602082019050919050565b60006108d2603383610d7b565b91507f4365727469666963617465206861736820616c7265616479206578697374732060008301527f666f7220616e6f746865722073747564656e74000000000000000000000000006020830152604082019050919050565b6000610938602083610d7b565b91507f47726164756174696f6e2067726164652063616e6e6f7420626520656d7074796000830152602082019050919050565b6000610978601c83610d7b565b91507f53747564656e74206e616d652063616e6e6f7420626520656d707479000000006000830152602082019050919050565b60006109b8602e83610d7b565b91507f436572746966696361746520666f7220746869732073747564656e742049442060008301527f616c7265616479206578697374730000000000000000000000000000000000006020830152604082019050919050565b6000610a1e601583610d7b565b91507f4365727469666963617465206e6f7420666f756e6400000000000000000000006000830152602082019050919050565b6000610a5e602083610d7b565b91507f4365727469666963617465206e616d652063616e6e6f7420626520656d7074796000830152602082019050919050565b6000610a9e601983610d7b565b91507f4973737565642062792063616e6e6f7420626520656d707479000000000000006000830152602082019050919050565b6000610ade601883610d7b565b91507f49737375652064617465206d7573742062652076616c696400000000000000006000830152602082019050919050565b610b1a81610da2565b82525050565b610b31610b2c82610da2565b610db6565b82525050565b6000610b43828961086e565b602082019150610b53828861086e565b602082019150610b63828761086e565b602082019150610b738286610b20565b602082019150610b83828561086e565b602082019150610b93828461086e565b602082019150819050979650505050505050565b6000602082019050610bbc6000830184610850565b92915050565b6000602082019050610bd7600083018461085f565b92915050565b600061010082019050610bf3600083018b61085f565b610c00602083018a61085f565b610c0d604083018961085f565b610c1a6060830188610b11565b610c27608083018761085f565b610c3460a083018661085f565b610c4160c083018561085f565b610c4e60e0830184610b11565b9998505050505050505050565b60006020820190508181036000830152610c7481610885565b9050919050565b60006020820190508181036000830152610c94816108c5565b9050919050565b60006020820190508181036000830152610cb48161092b565b9050919050565b60006020820190508181036000830152610cd48161096b565b9050919050565b60006020820190508181036000830152610cf4816109ab565b9050919050565b60006020820190508181036000830152610d1481610a11565b9050919050565b60006020820190508181036000830152610d3481610a51565b9050919050565b60006020820190508181036000830152610d5481610a91565b9050919050565b60006020820190508181036000830152610d7481610ad1565b9050919050565b600082825260208201905092915050565b60008115159050919050565b6000819050919050565b6000819050919050565b6000819050919050565b6000819050919050565b610dc981610d98565b8114610dd457600080fd5b50565b610de081610da2565b8114610deb57600080fd5b5056fea2646970667358221220789baef7133e343b95e1d1afacc31015581f5adae9320239fd0638e1e22ad36a64736f6c63430008000033",
  "immutableReferences": {},
  "source": "// SPDX-License-Identifier: MIT\npragma solidity ^0.8.0;\n\ncontract Certificate {\n    struct Cert {\n        bytes32 studentID;\n        bytes32 studentName;\n        bytes32 certificateName;\n        uint issueDate;\n        bytes32 issuedBy;\n        bytes32 graduationGrade;\n        bytes32 certificateHash;\n        uint timestamp;\n    }\n\n    mapping(bytes32 => Cert) public certificates;\n    mapping(bytes32 => bytes32) public hashToStudent;\n\n    event CertificateAdded(\n        bytes32 studentID,\n        bytes32 studentName,\n        bytes32 certificateName,\n        uint issueDate,\n        bytes32 issuedBy,\n        bytes32 graduationGrade,\n        bytes32 certificateHash,\n        uint timestamp\n    );\n\n    function studentToHash(bytes32 _studentID) public view returns (bytes32) {\n        return certificates[_studentID].certificateHash;\n    }\n\n    function _generateCertificateHash(\n        bytes32 _studentID,\n        bytes32 _studentName,\n        bytes32 _certificateName,\n        uint _issueDate,\n        bytes32 _issuedBy,\n        bytes32 _graduationGrade\n    ) internal pure returns (bytes32) {\n        return keccak256(abi.encodePacked(\n            _studentID,\n            _studentName,\n            _certificateName,\n            _issueDate,\n            _issuedBy,\n            _graduationGrade\n        ));\n    }\n\n    function addCertificate(\n        bytes32 _studentID,\n        bytes32 _studentName,\n        bytes32 _certificateName,\n        uint _issueDate,\n        bytes32 _issuedBy,\n        bytes32 _graduationGrade\n    ) public {\n        require(_studentID != bytes32(0), \"Student ID cannot be empty\");\n        require(_studentName != bytes32(0), \"Student name cannot be empty\");\n        require(_certificateName != bytes32(0), \"Certificate name cannot be empty\");\n        require(_issueDate > 0, \"Issue date must be valid\");\n        require(_issuedBy != bytes32(0), \"Issued by cannot be empty\");\n        require(_graduationGrade != bytes32(0), \"Graduation grade cannot be empty\");\n\n        require(certificates[_studentID].studentID == bytes32(0), \"Certificate for this student ID already exists\");\n\n        bytes32 certificateHash = _generateCertificateHash(\n            _studentID,\n            _studentName,\n            _certificateName,\n            _issueDate,\n            _issuedBy,\n            _graduationGrade\n        );\n\n        require(hashToStudent[certificateHash] == bytes32(0), \"Certificate hash already exists for another student\");\n\n        certificates[_studentID] = Cert(\n            _studentID,\n            _studentName,\n            _certificateName,\n            _issueDate,\n            _issuedBy,\n            _graduationGrade,\n            certificateHash,\n            block.timestamp\n        );\n\n        hashToStudent[certificateHash] = _studentID;\n\n        emit CertificateAdded(\n            _studentID,\n            _studentName,\n            _certificateName,\n            _issueDate,\n            _issuedBy,\n            _graduationGrade,\n            certificateHash,\n            block.timestamp\n        );\n    }\n\n    function verifyCertificate(bytes32 _studentID, bytes32 _certificateHash) public view returns (bool) {\n        Cert memory cert = certificates[_studentID];\n        return cert.certificateHash == _certificateHash;\n    }\n\n    \n\n\n\n\n    function getCertificate(bytes32 _studentID) public view returns (\n        bytes32,\n        bytes32,\n        bytes32,\n        uint,\n        bytes32,\n        bytes32,\n        bytes32,\n        uint\n    ) {\n        Cert memory cert = certificates[_studentID];\n        require(cert.studentID != bytes32(0), \"Certificate not found\");\n        return (\n            cert.studentID,\n            cert.studentName,\n            cert.certificateName,\n            cert.issueDate,\n            cert.issuedBy,\n            cert.graduationGrade,\n            cert.certificateHash,\n            cert.timestamp\n        );\n    }\n}\n",
  "sourcePath": "D:\\nckh-1a744326baa16eb13430f6a9341fb4d3e74c9081\\Blockchain\\contracts\\Certificate.sol",
  "compiler": {
    "name": "solc",
    "version": "0.8.0+commit.c7dfd78e.Emscripten.clang"
  },
  "schemaVersion": "3.4.16",
  "updatedAt": "2025-06-13T18:50:48.796Z",
  "devdoc": {
    "kind": "dev",
    "methods": {},
    "version": 1
  },
  "userdoc": {
    "kind": "user",
    "methods": {},
    "version": 1
  }
}