{
  "contractName": "Certificate",
  "abi": [
    {
      "anonymous": false,
      "inputs": [
        {
          "indexed": false,
          "internalType": "string",
          "name": "studentID",
          "type": "string"
        },
        {
          "indexed": false,
          "internalType": "string",
          "name": "certificateHash",
          "type": "string"
        },
        {
          "indexed": false,
          "internalType": "uint256",
          "name": "timestamp",
          "type": "uint256"
        }
      ],
      "name": "CertificateAdded",
      "type": "event"
    },
    {
      "inputs": [
        {
          "internalType": "string",
          "name": "",
          "type": "string"
        }
      ],
      "name": "certificates",
      "outputs": [
        {
          "internalType": "string",
          "name": "studentID",
          "type": "string"
        },
        {
          "internalType": "string",
          "name": "certificateHash",
          "type": "string"
        },
        {
          "internalType": "uint256",
          "name": "timestamp",
          "type": "uint256"
        }
      ],
      "stateMutability": "view",
      "type": "function",
      "constant": true
    },
    {
      "inputs": [
        {
          "internalType": "string",
          "name": "",
          "type": "string"
        }
      ],
      "name": "hashToStudent",
      "outputs": [
        {
          "internalType": "string",
          "name": "",
          "type": "string"
        }
      ],
      "stateMutability": "view",
      "type": "function",
      "constant": true
    },
    {
      "inputs": [
        {
          "internalType": "string",
          "name": "_studentID",
          "type": "string"
        },
        {
          "internalType": "string",
          "name": "_certificateHash",
          "type": "string"
        }
      ],
      "name": "addCertificate",
      "outputs": [],
      "stateMutability": "nonpayable",
      "type": "function"
    },
    {
      "inputs": [
        {
          "internalType": "string",
          "name": "_studentID",
          "type": "string"
        },
        {
          "internalType": "string",
          "name": "_certificateHash",
          "type": "string"
        }
      ],
      "name": "verifyCertificate",
      "outputs": [
        {
          "internalType": "bool",
          "name": "",
          "type": "bool"
        }
      ],
      "stateMutability": "view",
      "type": "function",
      "constant": true
    }
  ],
  "bytecode": "0x608060405234801561001057600080fd5b50610d6f806100206000396000f3fe608060405234801561001057600080fd5b506004361061004c5760003560e01c80632751f71b146100515780638f2b91ea14610081578063bb68e7a0146100b3578063e24f2ce7146100e3575b600080fd5b61006b6004803603810190610066919061085f565b6100ff565b6040516100789190610ab6565b60405180910390f35b61009b6004803603810190610096919061081e565b6102b7565b6040516100aa93929190610af3565b60405180910390f35b6100cd60048036038101906100c8919061081e565b610407565b6040516100da9190610ad1565b60405180910390f35b6100fd60048036038101906100f8919061085f565b6104bd565b005b6000806000846040516101129190610a9f565b908152602001604051809103902060405180606001604052908160008201805461013b90610c98565b80601f016020809104026020016040519081016040528092919081815260200182805461016790610c98565b80156101b45780601f10610189576101008083540402835291602001916101b4565b820191906000526020600020905b81548152906001019060200180831161019757829003601f168201915b505050505081526020016001820180546101cd90610c98565b80601f01602080910402602001604051908101604052809291908181526020018280546101f990610c98565b80156102465780601f1061021b57610100808354040283529160200191610246565b820191906000526020600020905b81548152906001019060200180831161022957829003601f168201915b5050505050815260200160028201548152505090508260405160200161026c9190610a9f565b6040516020818303038152906040528051906020012081602001516040516020016102979190610a9f565b604051602081830303815290604052805190602001201491505092915050565b6000818051602081018201805184825260208301602085012081835280955050505050506000915090508060000180546102f090610c98565b80601f016020809104026020016040519081016040528092919081815260200182805461031c90610c98565b80156103695780601f1061033e57610100808354040283529160200191610369565b820191906000526020600020905b81548152906001019060200180831161034c57829003601f168201915b50505050509080600101805461037e90610c98565b80601f01602080910402602001604051908101604052809291908181526020018280546103aa90610c98565b80156103f75780601f106103cc576101008083540402835291602001916103f7565b820191906000526020600020905b8154815290600101906020018083116103da57829003601f168201915b5050505050908060020154905083565b600181805160208101820180518482526020830160208501208183528095505050505050600091509050805461043c90610c98565b80601f016020809104026020016040519081016040528092919081815260200182805461046890610c98565b80156104b55780601f1061048a576101008083540402835291602001916104b5565b820191906000526020600020905b81548152906001019060200180831161049857829003601f168201915b505050505081565b6000825111610501576040517f08c379a00000000000000000000000000000000000000000000000000000000081526004016104f890610b38565b60405180910390fd5b6000815111610545576040517f08c379a000000000000000000000000000000000000000000000000000000000815260040161053c90610b98565b60405180910390fd5b600080836040516105569190610a9f565b9081526020016040518091039020600001805461057290610c98565b9050146105b4576040517f08c379a00000000000000000000000000000000000000000000000000000000081526004016105ab90610b78565b60405180910390fd5b60006001826040516105c69190610a9f565b908152602001604051809103902080546105df90610c98565b905014610621576040517f08c379a000000000000000000000000000000000000000000000000000000000815260040161061890610b58565b60405180910390fd5b60405180606001604052808381526020018281526020014281525060008360405161064c9190610a9f565b90815260200160405180910390206000820151816000019080519060200190610676929190610713565b506020820151816001019080519060200190610693929190610713565b5060408201518160020155905050816001826040516106b29190610a9f565b908152602001604051809103902090805190602001906106d3929190610713565b507fe985e28caa301fce4a9731caaa48ca22260bfde4e71060a8d129c865075c465a82824260405161070793929190610af3565b60405180910390a15050565b82805461071f90610c98565b90600052602060002090601f0160209004810192826107415760008555610788565b82601f1061075a57805160ff1916838001178555610788565b82800160010185558215610788579182015b8281111561078757825182559160200191906001019061076c565b5b5090506107959190610799565b5090565b5b808211156107b257600081600090555060010161079a565b5090565b60006107c96107c484610be9565b610bb8565b9050828152602081018484840111156107e157600080fd5b6107ec848285610c56565b509392505050565b600082601f83011261080557600080fd5b81356108158482602086016107b6565b91505092915050565b60006020828403121561083057600080fd5b600082013567ffffffffffffffff81111561084a57600080fd5b610856848285016107f4565b91505092915050565b6000806040838503121561087257600080fd5b600083013567ffffffffffffffff81111561088c57600080fd5b610898858286016107f4565b925050602083013567ffffffffffffffff8111156108b557600080fd5b6108c1858286016107f4565b9150509250929050565b6108d481610c40565b82525050565b60006108e582610c19565b6108ef8185610c24565b93506108ff818560208601610c65565b61090881610d28565b840191505092915050565b600061091e82610c19565b6109288185610c35565b9350610938818560208601610c65565b80840191505092915050565b6000610951601a83610c24565b91507f53747564656e742049442063616e6e6f7420626520656d7074790000000000006000830152602082019050919050565b6000610991603383610c24565b91507f4365727469666963617465206861736820616c7265616479206578697374732060008301527f666f7220616e6f746865722073747564656e74000000000000000000000000006020830152604082019050919050565b60006109f7602e83610c24565b91507f436572746966696361746520666f7220746869732073747564656e742049442060008301527f616c7265616479206578697374730000000000000000000000000000000000006020830152604082019050919050565b6000610a5d602083610c24565b91507f436572746966696361746520686173682063616e6e6f7420626520656d7074796000830152602082019050919050565b610a9981610c4c565b82525050565b6000610aab8284610913565b915081905092915050565b6000602082019050610acb60008301846108cb565b92915050565b60006020820190508181036000830152610aeb81846108da565b905092915050565b60006060820190508181036000830152610b0d81866108da565b90508181036020830152610b2181856108da565b9050610b306040830184610a90565b949350505050565b60006020820190508181036000830152610b5181610944565b9050919050565b60006020820190508181036000830152610b7181610984565b9050919050565b60006020820190508181036000830152610b91816109ea565b9050919050565b60006020820190508181036000830152610bb181610a50565b9050919050565b6000604051905081810181811067ffffffffffffffff82111715610bdf57610bde610cf9565b5b8060405250919050565b600067ffffffffffffffff821115610c0457610c03610cf9565b5b601f19601f8301169050602081019050919050565b600081519050919050565b600082825260208201905092915050565b600081905092915050565b60008115159050919050565b6000819050919050565b82818337600083830152505050565b60005b83811015610c83578082015181840152602081019050610c68565b83811115610c92576000848401525b50505050565b60006002820490506001821680610cb057607f821691505b60208210811415610cc457610cc3610cca565b5b50919050565b7f4e487b7100000000000000000000000000000000000000000000000000000000600052602260045260246000fd5b7f4e487b7100000000000000000000000000000000000000000000000000000000600052604160045260246000fd5b6000601f19601f830116905091905056fea2646970667358221220cbf9d417dbff7cb7218919434774bd7af746dd44d535a08a1446a5e6df7bc15b64736f6c63430008000033",
  "immutableReferences": {},
  "source": "// SPDX-License-Identifier: MIT\r\npragma solidity ^0.8.0;\r\n\r\n// Smart contract  qun l v xc minh bng cp\r\ncontract Certificate {\r\n    struct Cert {\r\n        string studentID;      \r\n        string certificateHash;  \r\n        uint timestamp;        \r\n    }\r\n\r\n    // nh x m s sinh vin vi thng tin bng cp\r\n    mapping(string => Cert) public certificates;\r\n\r\n    // nh x t certificateHash n studentID  kim tra tnh duy nht ca certificateHash\r\n    mapping(string => string) public hashToStudent;\r\n\r\n    // S kin c pht ra khi mt bng cp mi c thm\r\n    event CertificateAdded(string studentID, string certificateHash, uint timestamp);\r\n\r\n    // Thm mt bng cp mi vo Blockchain\r\n    function addCertificate(string memory _studentID, string memory _certificateHash) public {\r\n        // Kim tra u vo\r\n        require(bytes(_studentID).length > 0, \"Student ID cannot be empty\");\r\n        require(bytes(_certificateHash).length > 0, \"Certificate hash cannot be empty\");\r\n\r\n        // Kim tra nu m sinh vin  tn ti\r\n        require(bytes(certificates[_studentID].studentID).length == 0, \"Certificate for this student ID already exists\");\r\n\r\n        // Kim tra nu certificateHash  c s dng bi mt sinh vin khc\r\n        require(bytes(hashToStudent[_certificateHash]).length == 0, \"Certificate hash already exists for another student\");\r\n\r\n        // Lu thng tin bng cp vo mapping\r\n        certificates[_studentID] = Cert(_studentID, _certificateHash, block.timestamp);\r\n        // Lu nh x certificateHash -> studentID  kim tra tnh duy nht\r\n        hashToStudent[_certificateHash] = _studentID;\r\n\r\n        // Pht ra s kin  thng bo\r\n        emit CertificateAdded(_studentID, _certificateHash, block.timestamp);\r\n    }\r\n\r\n    // Xc minh tnh hp l ca mt bng cp\r\n    function verifyCertificate(string memory _studentID, string memory _certificateHash) public view returns (bool) {\r\n        // Ly thng tin bng cp t mapping\r\n        Cert memory cert = certificates[_studentID];\r\n\r\n        // So snh hash c cung cp vi hash lu trn Blockchain\r\n        return keccak256(abi.encodePacked(cert.certificateHash)) == keccak256(abi.encodePacked(_certificateHash));\r\n    }\r\n}",
  "sourcePath": "E:\\1. fpt university\\Nghien cuu khoa hoc\\code4\\nckh\\Blockchain\\contracts\\Certificate.sol",
  "compiler": {
    "name": "solc",
    "version": "0.8.0+commit.c7dfd78e.Emscripten.clang"
  },
  "schemaVersion": "3.4.16",
  "updatedAt": "2025-03-17T17:24:46.497Z",
  "networkType": "ethereum",
  "devdoc": {
    "kind": "dev",
    "methods": {},
    "version": 1
  },
  "userdoc": {
    "kind": "user",
    "methods": {},
    "version": 1
  }
}