{
  "contractName": "Certificate",
  "abi": [
    {
      "anonymous": false,
      "inputs": [
        {
          "indexed": false,
          "internalType": "string",
          "name": "studentID",
          "type": "string"
        },
        {
          "indexed": false,
          "internalType": "string",
          "name": "studentName",
          "type": "string"
        },
        {
          "indexed": false,
          "internalType": "string",
          "name": "certificateName",
          "type": "string"
        },
        {
          "indexed": false,
          "internalType": "uint256",
          "name": "issueDate",
          "type": "uint256"
        },
        {
          "indexed": false,
          "internalType": "string",
          "name": "issuedBy",
          "type": "string"
        },
        {
          "indexed": false,
          "internalType": "string",
          "name": "graduationGrade",
          "type": "string"
        },
        {
          "indexed": false,
          "internalType": "string",
          "name": "certificateHash",
          "type": "string"
        },
        {
          "indexed": false,
          "internalType": "uint256",
          "name": "timestamp",
          "type": "uint256"
        }
      ],
      "name": "CertificateAdded",
      "type": "event"
    },
    {
      "inputs": [
        {
          "internalType": "string",
          "name": "",
          "type": "string"
        }
      ],
      "name": "certificates",
      "outputs": [
        {
          "internalType": "string",
          "name": "studentID",
          "type": "string"
        },
        {
          "internalType": "string",
          "name": "studentName",
          "type": "string"
        },
        {
          "internalType": "string",
          "name": "certificateName",
          "type": "string"
        },
        {
          "internalType": "uint256",
          "name": "issueDate",
          "type": "uint256"
        },
        {
          "internalType": "string",
          "name": "issuedBy",
          "type": "string"
        },
        {
          "internalType": "string",
          "name": "graduationGrade",
          "type": "string"
        },
        {
          "internalType": "string",
          "name": "certificateHash",
          "type": "string"
        },
        {
          "internalType": "uint256",
          "name": "timestamp",
          "type": "uint256"
        }
      ],
      "stateMutability": "view",
      "type": "function",
      "constant": true
    },
    {
      "inputs": [
        {
          "internalType": "string",
          "name": "",
          "type": "string"
        }
      ],
      "name": "hashToStudent",
      "outputs": [
        {
          "internalType": "string",
          "name": "",
          "type": "string"
        }
      ],
      "stateMutability": "view",
      "type": "function",
      "constant": true
    },
    {
      "inputs": [
        {
          "internalType": "string",
          "name": "_studentID",
          "type": "string"
        },
        {
          "internalType": "string",
          "name": "_studentName",
          "type": "string"
        },
        {
          "internalType": "string",
          "name": "_certificateName",
          "type": "string"
        },
        {
          "internalType": "uint256",
          "name": "_issueDate",
          "type": "uint256"
        },
        {
          "internalType": "string",
          "name": "_issuedBy",
          "type": "string"
        },
        {
          "internalType": "string",
          "name": "_graduationGrade",
          "type": "string"
        }
      ],
      "name": "addCertificate",
      "outputs": [],
      "stateMutability": "nonpayable",
      "type": "function"
    },
    {
      "inputs": [
        {
          "internalType": "string",
          "name": "_studentID",
          "type": "string"
        },
        {
          "internalType": "string",
          "name": "_certificateHash",
          "type": "string"
        }
      ],
      "name": "verifyCertificate",
      "outputs": [
        {
          "internalType": "bool",
          "name": "",
          "type": "bool"
        }
      ],
      "stateMutability": "view",
      "type": "function",
      "constant": true
    },
    {
      "inputs": [
        {
          "internalType": "string",
          "name": "_studentID",
          "type": "string"
        }
      ],
      "name": "getCertificate",
      "outputs": [
        {
          "internalType": "string",
          "name": "",
          "type": "string"
        },
        {
          "internalType": "string",
          "name": "",
          "type": "string"
        },
        {
          "internalType": "string",
          "name": "",
          "type": "string"
        },
        {
          "internalType": "uint256",
          "name": "",
          "type": "uint256"
        },
        {
          "internalType": "string",
          "name": "",
          "type": "string"
        },
        {
          "internalType": "string",
          "name": "",
          "type": "string"
        },
        {
          "internalType": "string",
          "name": "",
          "type": "string"
        },
        {
          "internalType": "uint256",
          "name": "",
          "type": "uint256"
        }
      ],
      "stateMutability": "view",
      "type": "function",
      "constant": true
    }
  ],
  "bytecode": "0x608060405234801561001057600080fd5b506121b5806100206000396000f3fe608060405234801561001057600080fd5b50600436106100575760003560e01c80632751f71b1461005c5780638f2b91ea1461008c578063bb68e7a0146100c3578063dc8a7e0d146100f3578063ed0f2e751461010f575b600080fd5b61007660048036038101906100719190611616565b610146565b6040516100839190611bc5565b60405180910390f35b6100a660048036038101906100a191906115d5565b610551565b6040516100ba989796959493929190611c02565b60405180910390f35b6100dd60048036038101906100d891906115d5565b6108df565b6040516100ea9190611be0565b60405180910390f35b61010d60048036038101906101089190611682565b610995565b005b610129600480360381019061012491906115d5565b610db9565b60405161013d989796959493929190611c02565b60405180910390f35b6000806000846040516101599190611b1f565b90815260200160405180910390206040518061010001604052908160008201805461018390611fe5565b80601f01602080910402602001604051908101604052809291908181526020018280546101af90611fe5565b80156101fc5780601f106101d1576101008083540402835291602001916101fc565b820191906000526020600020905b8154815290600101906020018083116101df57829003601f168201915b5050505050815260200160018201805461021590611fe5565b80601f016020809104026020016040519081016040528092919081815260200182805461024190611fe5565b801561028e5780601f106102635761010080835404028352916020019161028e565b820191906000526020600020905b81548152906001019060200180831161027157829003601f168201915b505050505081526020016002820180546102a790611fe5565b80601f01602080910402602001604051908101604052809291908181526020018280546102d390611fe5565b80156103205780601f106102f557610100808354040283529160200191610320565b820191906000526020600020905b81548152906001019060200180831161030357829003601f168201915b505050505081526020016003820154815260200160048201805461034390611fe5565b80601f016020809104026020016040519081016040528092919081815260200182805461036f90611fe5565b80156103bc5780601f10610391576101008083540402835291602001916103bc565b820191906000526020600020905b81548152906001019060200180831161039f57829003601f168201915b505050505081526020016005820180546103d590611fe5565b80601f016020809104026020016040519081016040528092919081815260200182805461040190611fe5565b801561044e5780601f106104235761010080835404028352916020019161044e565b820191906000526020600020905b81548152906001019060200180831161043157829003601f168201915b5050505050815260200160068201805461046790611fe5565b80601f016020809104026020016040519081016040528092919081815260200182805461049390611fe5565b80156104e05780601f106104b5576101008083540402835291602001916104e0565b820191906000526020600020905b8154815290600101906020018083116104c357829003601f168201915b505050505081526020016007820154815250509050826040516020016105069190611b1f565b604051602081830303815290604052805190602001208160c001516040516020016105319190611b1f565b604051602081830303815290604052805190602001201491505092915050565b60008180516020810182018051848252602083016020850120818352809550505050505060009150905080600001805461058a90611fe5565b80601f01602080910402602001604051908101604052809291908181526020018280546105b690611fe5565b80156106035780601f106105d857610100808354040283529160200191610603565b820191906000526020600020905b8154815290600101906020018083116105e657829003601f168201915b50505050509080600101805461061890611fe5565b80601f016020809104026020016040519081016040528092919081815260200182805461064490611fe5565b80156106915780601f1061066657610100808354040283529160200191610691565b820191906000526020600020905b81548152906001019060200180831161067457829003601f168201915b5050505050908060020180546106a690611fe5565b80601f01602080910402602001604051908101604052809291908181526020018280546106d290611fe5565b801561071f5780601f106106f45761010080835404028352916020019161071f565b820191906000526020600020905b81548152906001019060200180831161070257829003601f168201915b50505050509080600301549080600401805461073a90611fe5565b80601f016020809104026020016040519081016040528092919081815260200182805461076690611fe5565b80156107b35780601f10610788576101008083540402835291602001916107b3565b820191906000526020600020905b81548152906001019060200180831161079657829003601f168201915b5050505050908060050180546107c890611fe5565b80601f01602080910402602001604051908101604052809291908181526020018280546107f490611fe5565b80156108415780601f1061081657610100808354040283529160200191610841565b820191906000526020600020905b81548152906001019060200180831161082457829003601f168201915b50505050509080600601805461085690611fe5565b80601f016020809104026020016040519081016040528092919081815260200182805461088290611fe5565b80156108cf5780601f106108a4576101008083540402835291602001916108cf565b820191906000526020600020905b8154815290600101906020018083116108b257829003601f168201915b5050505050908060070154905088565b600181805160208101820180518482526020830160208501208183528095505050505050600091509050805461091490611fe5565b80601f016020809104026020016040519081016040528092919081815260200182805461094090611fe5565b801561098d5780601f106109625761010080835404028352916020019161098d565b820191906000526020600020905b81548152906001019060200180831161097057829003601f168201915b505050505081565b60008651116109d9576040517f08c379a00000000000000000000000000000000000000000000000000000000081526004016109d090611caa565b60405180910390fd5b6000855111610a1d576040517f08c379a0000000000000000000000000000000000000000000000000000000008152600401610a1490611d0a565b60405180910390fd5b6000845111610a61576040517f08c379a0000000000000000000000000000000000000000000000000000000008152600401610a5890611d6a565b60405180910390fd5b60008311610aa4576040517f08c379a0000000000000000000000000000000000000000000000000000000008152600401610a9b90611daa565b60405180910390fd5b6000825111610ae8576040517f08c379a0000000000000000000000000000000000000000000000000000000008152600401610adf90611d8a565b60405180910390fd5b6000815111610b2c576040517f08c379a0000000000000000000000000000000000000000000000000000000008152600401610b2390611cea565b60405180910390fd5b60008087604051610b3d9190611b1f565b90815260200160405180910390206000018054610b5990611fe5565b905014610b9b576040517f08c379a0000000000000000000000000000000000000000000000000000000008152600401610b9290611d2a565b60405180910390fd5b6000610bac87878787878742611200565b90506000600182604051610bc09190611b1f565b90815260200160405180910390208054610bd990611fe5565b905014610c1b576040517f08c379a0000000000000000000000000000000000000000000000000000000008152600401610c1290611cca565b60405180910390fd5b60405180610100016040528088815260200187815260200186815260200185815260200184815260200183815260200182815260200142815250600088604051610c659190611b1f565b90815260200160405180910390206000820151816000019080519060200190610c8f9291906114b5565b506020820151816001019080519060200190610cac9291906114b5565b506040820151816002019080519060200190610cc99291906114b5565b50606082015181600301556080820151816004019080519060200190610cf09291906114b5565b5060a0820151816005019080519060200190610d0d9291906114b5565b5060c0820151816006019080519060200190610d2a9291906114b5565b5060e0820151816007015590505086600182604051610d499190611b1f565b90815260200160405180910390209080519060200190610d6a9291906114b5565b507f5353b67434c16a063cd5b6f6716de7e47f5c7cc04bc13133e3fdd63a6c09013b8787878787878742604051610da8989796959493929190611c02565b60405180910390a150505050505050565b60608060606000606080606060008060008a604051610dd89190611b1f565b908152602001604051809103902060405180610100016040529081600082018054610e0290611fe5565b80601f0160208091040260200160405190810160405280929190818152602001828054610e2e90611fe5565b8015610e7b5780601f10610e5057610100808354040283529160200191610e7b565b820191906000526020600020905b815481529060010190602001808311610e5e57829003601f168201915b50505050508152602001600182018054610e9490611fe5565b80601f0160208091040260200160405190810160405280929190818152602001828054610ec090611fe5565b8015610f0d5780601f10610ee257610100808354040283529160200191610f0d565b820191906000526020600020905b815481529060010190602001808311610ef057829003601f168201915b50505050508152602001600282018054610f2690611fe5565b80601f0160208091040260200160405190810160405280929190818152602001828054610f5290611fe5565b8015610f9f5780601f10610f7457610100808354040283529160200191610f9f565b820191906000526020600020905b815481529060010190602001808311610f8257829003601f168201915b5050505050815260200160038201548152602001600482018054610fc290611fe5565b80601f0160208091040260200160405190810160405280929190818152602001828054610fee90611fe5565b801561103b5780601f106110105761010080835404028352916020019161103b565b820191906000526020600020905b81548152906001019060200180831161101e57829003601f168201915b5050505050815260200160058201805461105490611fe5565b80601f016020809104026020016040519081016040528092919081815260200182805461108090611fe5565b80156110cd5780601f106110a2576101008083540402835291602001916110cd565b820191906000526020600020905b8154815290600101906020018083116110b057829003601f168201915b505050505081526020016006820180546110e690611fe5565b80601f016020809104026020016040519081016040528092919081815260200182805461111290611fe5565b801561115f5780601f106111345761010080835404028352916020019161115f565b820191906000526020600020905b81548152906001019060200180831161114257829003601f168201915b5050505050815260200160078201548152505090506000816000015151116111bc576040517f08c379a00000000000000000000000000000000000000000000000000000000081526004016111b390611d4a565b60405180910390fd5b806000015181602001518260400151836060015184608001518560a001518660c001518760e001519850985098509850985098509850985050919395975091939597565b60606000888888888888886040516020016112219796959493929190611b36565b6040516020818303038152906040528051906020012090506112428161126f565b6040516020016112529190611ba3565b604051602081830303815290604052915050979650505050505050565b60606000604067ffffffffffffffff8111156112b4577f4e487b7100000000000000000000000000000000000000000000000000000000600052604160045260246000fd5b6040519080825280601f01601f1916602001820160405280156112e65781602001600182028036833780820191505090505b50905060005b60208110156114ab576000848260208110611330577f4e487b7100000000000000000000000000000000000000000000000000000000600052603260045260246000fd5b1a60f81b60f81c905060108160ff161061134b57605761134e565b60305b60108261135b9190611ef5565b6113659190611ebe565b60f81b836002846113769190611f26565b815181106113ad577f4e487b7100000000000000000000000000000000000000000000000000000000600052603260045260246000fd5b60200101907effffffffffffffffffffffffffffffffffffffffffffffffffffffffffffff1916908160001a905350600a6010826113eb919061206a565b60ff16106113fa5760576113fd565b60305b60108261140a919061206a565b6114149190611ebe565b60f81b8360016002856114279190611f26565b6114319190611e68565b81518110611468577f4e487b7100000000000000000000000000000000000000000000000000000000600052603260045260246000fd5b60200101907effffffffffffffffffffffffffffffffffffffffffffffffffffffffffffff1916908160001a9053505080806114a390612017565b9150506112ec565b5080915050919050565b8280546114c190611fe5565b90600052602060002090601f0160209004810192826114e3576000855561152a565b82601f106114fc57805160ff191683800117855561152a565b8280016001018555821561152a579182015b8281111561152957825182559160200191906001019061150e565b5b509050611537919061153b565b5090565b5b8082111561155457600081600090555060010161153c565b5090565b600061156b61156684611dfb565b611dca565b90508281526020810184848401111561158357600080fd5b61158e848285611fa3565b509392505050565b600082601f8301126115a757600080fd5b81356115b7848260208601611558565b91505092915050565b6000813590506115cf81612168565b92915050565b6000602082840312156115e757600080fd5b600082013567ffffffffffffffff81111561160157600080fd5b61160d84828501611596565b91505092915050565b6000806040838503121561162957600080fd5b600083013567ffffffffffffffff81111561164357600080fd5b61164f85828601611596565b925050602083013567ffffffffffffffff81111561166c57600080fd5b61167885828601611596565b9150509250929050565b60008060008060008060c0878903121561169b57600080fd5b600087013567ffffffffffffffff8111156116b557600080fd5b6116c189828a01611596565b965050602087013567ffffffffffffffff8111156116de57600080fd5b6116ea89828a01611596565b955050604087013567ffffffffffffffff81111561170757600080fd5b61171389828a01611596565b945050606061172489828a016115c0565b935050608087013567ffffffffffffffff81111561174157600080fd5b61174d89828a01611596565b92505060a087013567ffffffffffffffff81111561176a57600080fd5b61177689828a01611596565b9150509295509295509295565b61178c81611f80565b82525050565b600061179d82611e2b565b6117a78185611e41565b93506117b7818560208601611fb2565b80840191505092915050565b60006117ce82611e36565b6117d88185611e4c565b93506117e8818560208601611fb2565b6117f181612157565b840191505092915050565b600061180782611e36565b6118118185611e5d565b9350611821818560208601611fb2565b80840191505092915050565b600061183a601a83611e4c565b91507f53747564656e742049442063616e6e6f7420626520656d7074790000000000006000830152602082019050919050565b600061187a603383611e4c565b91507f4365727469666963617465206861736820616c7265616479206578697374732060008301527f666f7220616e6f746865722073747564656e74000000000000000000000000006020830152604082019050919050565b60006118e0602083611e4c565b91507f47726164756174696f6e2067726164652063616e6e6f7420626520656d7074796000830152602082019050919050565b6000611920600283611e5d565b91507f30780000000000000000000000000000000000000000000000000000000000006000830152600282019050919050565b6000611960601c83611e4c565b91507f53747564656e74206e616d652063616e6e6f7420626520656d707479000000006000830152602082019050919050565b60006119a0602e83611e4c565b91507f436572746966696361746520666f7220746869732073747564656e742049442060008301527f616c7265616479206578697374730000000000000000000000000000000000006020830152604082019050919050565b6000611a06601583611e4c565b91507f4365727469666963617465206e6f7420666f756e6400000000000000000000006000830152602082019050919050565b6000611a46602083611e4c565b91507f4365727469666963617465206e616d652063616e6e6f7420626520656d7074796000830152602082019050919050565b6000611a86601983611e4c565b91507f4973737565642062792063616e6e6f7420626520656d707479000000000000006000830152602082019050919050565b6000611ac6601883611e4c565b91507f49737375652064617465206d7573742062652076616c696400000000000000006000830152602082019050919050565b611b0281611f8c565b82525050565b611b19611b1482611f8c565b612060565b82525050565b6000611b2b82846117fc565b915081905092915050565b6000611b42828a6117fc565b9150611b4e82896117fc565b9150611b5a82886117fc565b9150611b668287611b08565b602082019150611b7682866117fc565b9150611b8282856117fc565b9150611b8e8284611b08565b60208201915081905098975050505050505050565b6000611bae82611913565b9150611bba8284611792565b915081905092915050565b6000602082019050611bda6000830184611783565b92915050565b60006020820190508181036000830152611bfa81846117c3565b905092915050565b6000610100820190508181036000830152611c1d818b6117c3565b90508181036020830152611c31818a6117c3565b90508181036040830152611c4581896117c3565b9050611c546060830188611af9565b8181036080830152611c6681876117c3565b905081810360a0830152611c7a81866117c3565b905081810360c0830152611c8e81856117c3565b9050611c9d60e0830184611af9565b9998505050505050505050565b60006020820190508181036000830152611cc38161182d565b9050919050565b60006020820190508181036000830152611ce38161186d565b9050919050565b60006020820190508181036000830152611d03816118d3565b9050919050565b60006020820190508181036000830152611d2381611953565b9050919050565b60006020820190508181036000830152611d4381611993565b9050919050565b60006020820190508181036000830152611d63816119f9565b9050919050565b60006020820190508181036000830152611d8381611a39565b9050919050565b60006020820190508181036000830152611da381611a79565b9050919050565b60006020820190508181036000830152611dc381611ab9565b9050919050565b6000604051905081810181811067ffffffffffffffff82111715611df157611df0612128565b5b8060405250919050565b600067ffffffffffffffff821115611e1657611e15612128565b5b601f19601f8301169050602081019050919050565b600081519050919050565b600081519050919050565b600081905092915050565b600082825260208201905092915050565b600081905092915050565b6000611e7382611f8c565b9150611e7e83611f8c565b9250827fffffffffffffffffffffffffffffffffffffffffffffffffffffffffffffffff03821115611eb357611eb261209b565b5b828201905092915050565b6000611ec982611f96565b9150611ed483611f96565b92508260ff03821115611eea57611ee961209b565b5b828201905092915050565b6000611f0082611f96565b9150611f0b83611f96565b925082611f1b57611f1a6120ca565b5b828204905092915050565b6000611f3182611f8c565b9150611f3c83611f8c565b9250817fffffffffffffffffffffffffffffffffffffffffffffffffffffffffffffffff0483118215151615611f7557611f7461209b565b5b828202905092915050565b60008115159050919050565b6000819050919050565b600060ff82169050919050565b82818337600083830152505050565b60005b83811015611fd0578082015181840152602081019050611fb5565b83811115611fdf576000848401525b50505050565b60006002820490506001821680611ffd57607f821691505b60208210811415612011576120106120f9565b5b50919050565b600061202282611f8c565b91507fffffffffffffffffffffffffffffffffffffffffffffffffffffffffffffffff8214156120555761205461209b565b5b600182019050919050565b6000819050919050565b600061207582611f96565b915061208083611f96565b9250826120905761208f6120ca565b5b828206905092915050565b7f4e487b7100000000000000000000000000000000000000000000000000000000600052601160045260246000fd5b7f4e487b7100000000000000000000000000000000000000000000000000000000600052601260045260246000fd5b7f4e487b7100000000000000000000000000000000000000000000000000000000600052602260045260246000fd5b7f4e487b7100000000000000000000000000000000000000000000000000000000600052604160045260246000fd5b6000601f19601f8301169050919050565b61217181611f8c565b811461217c57600080fd5b5056fea264697066735822122048aabbfbf57b378c8080aed9d202120b6826023d384d46c106236d6fe0205fbd64736f6c63430008000033",
  "immutableReferences": {},
  "source": "// SPDX-License-Identifier: MIT\r\npragma solidity ^0.8.0;\r\n\r\n// Smart contract  qun l v xc minh bng cp\r\ncontract Certificate {\r\n    struct Cert {\r\n        string studentID;        \r\n        string studentName;      \r\n        string certificateName;  \r\n        uint issueDate;          \r\n        string issuedBy;         \r\n        string graduationGrade;  \r\n        string certificateHash;  \r\n        uint timestamp;          \r\n    }\r\n\r\n    // nh x m s sinh vin vi thng tin bng cp\r\n    mapping(string => Cert) public certificates;\r\n\r\n    // nh x t certificateHash n studentID  kim tra tnh duy nht ca certificateHash\r\n    mapping(string => string) public hashToStudent;\r\n\r\n    // S kin c pht ra khi mt bng cp mi c thm\r\n    event CertificateAdded(\r\n        string studentID,\r\n        string studentName,\r\n        string certificateName,\r\n        uint issueDate,\r\n        string issuedBy,\r\n        string graduationGrade,\r\n        string certificateHash,\r\n        uint timestamp\r\n    );\r\n\r\n    // Thm mt bng cp mi vo Blockchain\r\n    function addCertificate(\r\n        string memory _studentID,\r\n        string memory _studentName,\r\n        string memory _certificateName,\r\n        uint _issueDate,\r\n        string memory _issuedBy,\r\n        string memory _graduationGrade,\r\n        string memory _certificateHash\r\n    ) public {\r\n        // Kim tra u vo\r\n        require(bytes(_studentID).length > 0, \"Student ID cannot be empty\");\r\n        require(bytes(_studentName).length > 0, \"Student name cannot be empty\");\r\n        require(bytes(_certificateName).length > 0, \"Certificate name cannot be empty\");\r\n        require(_issueDate > 0, \"Issue date must be valid\");\r\n        require(bytes(_issuedBy).length > 0, \"Issued by cannot be empty\");\r\n        require(bytes(_graduationGrade).length > 0, \"Graduation grade cannot be empty\");\r\n        require(bytes(_certificateHash).length > 0, \"Certificate hash cannot be empty\");\r\n\r\n        // Kim tra nu m sinh vin  tn ti\r\n        require(bytes(certificates[_studentID].studentID).length == 0, \"Certificate for this student ID already exists\");\r\n\r\n        // Kim tra nu certificateHash  c s dng bi mt sinh vin khc\r\n        require(bytes(hashToStudent[_certificateHash]).length == 0, \"Certificate hash already exists for another student\");\r\n\r\n        // Lu thng tin bng cp vo mapping\r\n        certificates[_studentID] = Cert(\r\n            _studentID,\r\n            _studentName,\r\n            _certificateName,\r\n            _issueDate,\r\n            _issuedBy,\r\n            _graduationGrade,\r\n            _certificateHash,\r\n            block.timestamp\r\n        );\r\n\r\n        // Lu nh x certificateHash -> studentID  kim tra tnh duy nht\r\n        hashToStudent[_certificateHash] = _studentID;\r\n\r\n        // Pht ra s kin  thng bo\r\n        emit CertificateAdded(\r\n            _studentID,\r\n            _studentName,\r\n            _certificateName,\r\n            _issueDate,\r\n            _issuedBy,\r\n            _graduationGrade,\r\n            _certificateHash,\r\n            block.timestamp\r\n        );\r\n    }\r\n\r\n    // Xc minh tnh hp l ca mt bng cp\r\n    function verifyCertificate(string memory _studentID, string memory _certificateHash) public view returns (bool) {\r\n        // Ly thng tin bng cp t mapping\r\n        Cert memory cert = certificates[_studentID];\r\n\r\n        // So snh hash c cung cp vi hash lu trn Blockchain\r\n        return keccak256(abi.encodePacked(cert.certificateHash)) == keccak256(abi.encodePacked(_certificateHash));\r\n    }\r\n\r\n    // Ly thng tin bng cp\r\n    function getCertificate(string memory _studentID) public view returns (\r\n        string memory,\r\n        string memory,\r\n        string memory,\r\n        uint,\r\n        string memory,\r\n        string memory,\r\n        string memory,\r\n        uint\r\n    ) {\r\n        Cert memory cert = certificates[_studentID];\r\n        require(bytes(cert.studentID).length > 0, \"Certificate not found\");\r\n        return (\r\n            cert.studentID,\r\n            cert.studentName,\r\n            cert.certificateName,\r\n            cert.issueDate,\r\n            cert.issuedBy,\r\n            cert.graduationGrade,\r\n            cert.certificateHash,\r\n            cert.timestamp\r\n        );\r\n    }\r\n}",
  "sourcePath": "E:\\1. fpt university\\Nghien cuu khoa hoc\\code4\\nckh\\Blockchain\\contracts\\Certificate.sol",
  "compiler": {
    "name": "solc",
    "version": "0.8.0+commit.c7dfd78e.Emscripten.clang"
  },
  "schemaVersion": "3.4.16",
  "updatedAt": "2025-03-19T03:41:29.692Z",
  "networkType": "ethereum",
  "devdoc": {
    "kind": "dev",
    "methods": {},
    "version": 1
  },
  "userdoc": {
    "kind": "user",
    "methods": {},
    "version": 1
  }
}