{
  "contractName": "Certificate",
  "abi": [
    {
      "anonymous": false,
      "inputs": [
        {
          "indexed": false,
          "internalType": "string",
          "name": "studentID",
          "type": "string"
        },
        {
          "indexed": false,
          "internalType": "string",
          "name": "studentName",
          "type": "string"
        },
        {
          "indexed": false,
          "internalType": "string",
          "name": "certificateName",
          "type": "string"
        },
        {
          "indexed": false,
          "internalType": "uint256",
          "name": "issueDate",
          "type": "uint256"
        },
        {
          "indexed": false,
          "internalType": "string",
          "name": "issuedBy",
          "type": "string"
        },
        {
          "indexed": false,
          "internalType": "string",
          "name": "graduationGrade",
          "type": "string"
        },
        {
          "indexed": false,
          "internalType": "string",
          "name": "certificateHash",
          "type": "string"
        },
        {
          "indexed": false,
          "internalType": "uint256",
          "name": "timestamp",
          "type": "uint256"
        }
      ],
      "name": "CertificateAdded",
      "type": "event"
    },
    {
      "inputs": [
        {
          "internalType": "string",
          "name": "",
          "type": "string"
        }
      ],
      "name": "certificates",
      "outputs": [
        {
          "internalType": "string",
          "name": "studentID",
          "type": "string"
        },
        {
          "internalType": "string",
          "name": "studentName",
          "type": "string"
        },
        {
          "internalType": "string",
          "name": "certificateName",
          "type": "string"
        },
        {
          "internalType": "uint256",
          "name": "issueDate",
          "type": "uint256"
        },
        {
          "internalType": "string",
          "name": "issuedBy",
          "type": "string"
        },
        {
          "internalType": "string",
          "name": "graduationGrade",
          "type": "string"
        },
        {
          "internalType": "string",
          "name": "certificateHash",
          "type": "string"
        },
        {
          "internalType": "uint256",
          "name": "timestamp",
          "type": "uint256"
        }
      ],
      "stateMutability": "view",
      "type": "function",
      "constant": true
    },
    {
      "inputs": [
        {
          "internalType": "string",
          "name": "",
          "type": "string"
        }
      ],
      "name": "hashToStudent",
      "outputs": [
        {
          "internalType": "string",
          "name": "",
          "type": "string"
        }
      ],
      "stateMutability": "view",
      "type": "function",
      "constant": true
    },
    {
      "inputs": [
        {
          "internalType": "string",
          "name": "_studentID",
          "type": "string"
        },
        {
          "internalType": "string",
          "name": "_studentName",
          "type": "string"
        },
        {
          "internalType": "string",
          "name": "_certificateName",
          "type": "string"
        },
        {
          "internalType": "uint256",
          "name": "_issueDate",
          "type": "uint256"
        },
        {
          "internalType": "string",
          "name": "_issuedBy",
          "type": "string"
        },
        {
          "internalType": "string",
          "name": "_graduationGrade",
          "type": "string"
        }
      ],
      "name": "addCertificate",
      "outputs": [],
      "stateMutability": "nonpayable",
      "type": "function"
    },
    {
      "inputs": [
        {
          "internalType": "string",
          "name": "_studentID",
          "type": "string"
        },
        {
          "internalType": "string",
          "name": "_certificateHash",
          "type": "string"
        }
      ],
      "name": "verifyCertificate",
      "outputs": [
        {
          "internalType": "bool",
          "name": "",
          "type": "bool"
        }
      ],
      "stateMutability": "view",
      "type": "function",
      "constant": true
    },
    {
      "inputs": [
        {
          "internalType": "string",
          "name": "_studentID",
          "type": "string"
        }
      ],
      "name": "getCertificate",
      "outputs": [
        {
          "internalType": "string",
          "name": "",
          "type": "string"
        },
        {
          "internalType": "string",
          "name": "",
          "type": "string"
        },
        {
          "internalType": "string",
          "name": "",
          "type": "string"
        },
        {
          "internalType": "uint256",
          "name": "",
          "type": "uint256"
        },
        {
          "internalType": "string",
          "name": "",
          "type": "string"
        },
        {
          "internalType": "string",
          "name": "",
          "type": "string"
        },
        {
          "internalType": "string",
          "name": "",
          "type": "string"
        },
        {
          "internalType": "uint256",
          "name": "",
          "type": "uint256"
        }
      ],
      "stateMutability": "view",
      "type": "function",
      "constant": true
    }
  ],
  "bytecode": "0x608060405234801561001057600080fd5b5061218f806100206000396000f3fe608060405234801561001057600080fd5b50600436106100575760003560e01c80632751f71b1461005c5780638f2b91ea1461008c578063bb68e7a0146100c3578063dc8a7e0d146100f3578063ed0f2e751461010f575b600080fd5b610076600480360381019061007191906116d6565b610146565b6040516100839190611c74565b60405180910390f35b6100a660048036038101906100a19190611695565b610551565b6040516100ba989796959493929190611cb1565b60405180910390f35b6100dd60048036038101906100d89190611695565b6108df565b6040516100ea9190611c8f565b60405180910390f35b61010d60048036038101906101089190611742565b610995565b005b61012960048036038101906101249190611695565b610db8565b60405161013d989796959493929190611cb1565b60405180910390f35b6000806000846040516101599190611bdf565b9081526020016040518091039020604051806101000160405290816000820180546101839061201f565b80601f01602080910402602001604051908101604052809291908181526020018280546101af9061201f565b80156101fc5780601f106101d1576101008083540402835291602001916101fc565b820191906000526020600020905b8154815290600101906020018083116101df57829003601f168201915b505050505081526020016001820180546102159061201f565b80601f01602080910402602001604051908101604052809291908181526020018280546102419061201f565b801561028e5780601f106102635761010080835404028352916020019161028e565b820191906000526020600020905b81548152906001019060200180831161027157829003601f168201915b505050505081526020016002820180546102a79061201f565b80601f01602080910402602001604051908101604052809291908181526020018280546102d39061201f565b80156103205780601f106102f557610100808354040283529160200191610320565b820191906000526020600020905b81548152906001019060200180831161030357829003601f168201915b50505050508152602001600382015481526020016004820180546103439061201f565b80601f016020809104026020016040519081016040528092919081815260200182805461036f9061201f565b80156103bc5780601f10610391576101008083540402835291602001916103bc565b820191906000526020600020905b81548152906001019060200180831161039f57829003601f168201915b505050505081526020016005820180546103d59061201f565b80601f01602080910402602001604051908101604052809291908181526020018280546104019061201f565b801561044e5780601f106104235761010080835404028352916020019161044e565b820191906000526020600020905b81548152906001019060200180831161043157829003601f168201915b505050505081526020016006820180546104679061201f565b80601f01602080910402602001604051908101604052809291908181526020018280546104939061201f565b80156104e05780601f106104b5576101008083540402835291602001916104e0565b820191906000526020600020905b8154815290600101906020018083116104c357829003601f168201915b505050505081526020016007820154815250509050826040516020016105069190611bdf565b604051602081830303815290604052805190602001208160c001516040516020016105319190611bdf565b604051602081830303815290604052805190602001201491505092915050565b60008180516020810182018051848252602083016020850120818352809550505050505060009150905080600001805461058a9061201f565b80601f01602080910402602001604051908101604052809291908181526020018280546105b69061201f565b80156106035780601f106105d857610100808354040283529160200191610603565b820191906000526020600020905b8154815290600101906020018083116105e657829003601f168201915b5050505050908060010180546106189061201f565b80601f01602080910402602001604051908101604052809291908181526020018280546106449061201f565b80156106915780601f1061066657610100808354040283529160200191610691565b820191906000526020600020905b81548152906001019060200180831161067457829003601f168201915b5050505050908060020180546106a69061201f565b80601f01602080910402602001604051908101604052809291908181526020018280546106d29061201f565b801561071f5780601f106106f45761010080835404028352916020019161071f565b820191906000526020600020905b81548152906001019060200180831161070257829003601f168201915b50505050509080600301549080600401805461073a9061201f565b80601f01602080910402602001604051908101604052809291908181526020018280546107669061201f565b80156107b35780601f10610788576101008083540402835291602001916107b3565b820191906000526020600020905b81548152906001019060200180831161079657829003601f168201915b5050505050908060050180546107c89061201f565b80601f01602080910402602001604051908101604052809291908181526020018280546107f49061201f565b80156108415780601f1061081657610100808354040283529160200191610841565b820191906000526020600020905b81548152906001019060200180831161082457829003601f168201915b5050505050908060060180546108569061201f565b80601f01602080910402602001604051908101604052809291908181526020018280546108829061201f565b80156108cf5780601f106108a4576101008083540402835291602001916108cf565b820191906000526020600020905b8154815290600101906020018083116108b257829003601f168201915b5050505050908060070154905088565b60018180516020810182018051848252602083016020850120818352809550505050505060009150905080546109149061201f565b80601f01602080910402602001604051908101604052809291908181526020018280546109409061201f565b801561098d5780601f106109625761010080835404028352916020019161098d565b820191906000526020600020905b81548152906001019060200180831161097057829003601f168201915b505050505081565b60008651116109d9576040517f08c379a00000000000000000000000000000000000000000000000000000000081526004016109d090611d59565b60405180910390fd5b6000855111610a1d576040517f08c379a0000000000000000000000000000000000000000000000000000000008152600401610a1490611db9565b60405180910390fd5b6000845111610a61576040517f08c379a0000000000000000000000000000000000000000000000000000000008152600401610a5890611e19565b60405180910390fd5b60008311610aa4576040517f08c379a0000000000000000000000000000000000000000000000000000000008152600401610a9b90611e59565b60405180910390fd5b6000825111610ae8576040517f08c379a0000000000000000000000000000000000000000000000000000000008152600401610adf90611e39565b60405180910390fd5b6000815111610b2c576040517f08c379a0000000000000000000000000000000000000000000000000000000008152600401610b2390611d99565b60405180910390fd5b60008087604051610b3d9190611bdf565b90815260200160405180910390206000018054610b599061201f565b905014610b9b576040517f08c379a0000000000000000000000000000000000000000000000000000000008152600401610b9290611dd9565b60405180910390fd5b6000610bab8787878787876111ff565b90506000600182604051610bbf9190611bdf565b90815260200160405180910390208054610bd89061201f565b905014610c1a576040517f08c379a0000000000000000000000000000000000000000000000000000000008152600401610c1190611d79565b60405180910390fd5b60405180610100016040528088815260200187815260200186815260200185815260200184815260200183815260200182815260200142815250600088604051610c649190611bdf565b90815260200160405180910390206000820151816000019080519060200190610c8e929190611575565b506020820151816001019080519060200190610cab929190611575565b506040820151816002019080519060200190610cc8929190611575565b50606082015181600301556080820151816004019080519060200190610cef929190611575565b5060a0820151816005019080519060200190610d0c929190611575565b5060c0820151816006019080519060200190610d29929190611575565b5060e0820151816007015590505086600182604051610d489190611bdf565b90815260200160405180910390209080519060200190610d69929190611575565b507f5353b67434c16a063cd5b6f6716de7e47f5c7cc04bc13133e3fdd63a6c09013b8787878787878742604051610da7989796959493929190611cb1565b60405180910390a150505050505050565b60608060606000606080606060008060008a604051610dd79190611bdf565b908152602001604051809103902060405180610100016040529081600082018054610e019061201f565b80601f0160208091040260200160405190810160405280929190818152602001828054610e2d9061201f565b8015610e7a5780601f10610e4f57610100808354040283529160200191610e7a565b820191906000526020600020905b815481529060010190602001808311610e5d57829003601f168201915b50505050508152602001600182018054610e939061201f565b80601f0160208091040260200160405190810160405280929190818152602001828054610ebf9061201f565b8015610f0c5780601f10610ee157610100808354040283529160200191610f0c565b820191906000526020600020905b815481529060010190602001808311610eef57829003601f168201915b50505050508152602001600282018054610f259061201f565b80601f0160208091040260200160405190810160405280929190818152602001828054610f519061201f565b8015610f9e5780601f10610f7357610100808354040283529160200191610f9e565b820191906000526020600020905b815481529060010190602001808311610f8157829003601f168201915b5050505050815260200160038201548152602001600482018054610fc19061201f565b80601f0160208091040260200160405190810160405280929190818152602001828054610fed9061201f565b801561103a5780601f1061100f5761010080835404028352916020019161103a565b820191906000526020600020905b81548152906001019060200180831161101d57829003601f168201915b505050505081526020016005820180546110539061201f565b80601f016020809104026020016040519081016040528092919081815260200182805461107f9061201f565b80156110cc5780601f106110a1576101008083540402835291602001916110cc565b820191906000526020600020905b8154815290600101906020018083116110af57829003601f168201915b505050505081526020016006820180546110e59061201f565b80601f01602080910402602001604051908101604052809291908181526020018280546111119061201f565b801561115e5780601f106111335761010080835404028352916020019161115e565b820191906000526020600020905b81548152906001019060200180831161114157829003601f168201915b5050505050815260200160078201548152505090506000816000015151116111bb576040517f08c379a00000000000000000000000000000000000000000000000000000000081526004016111b290611df9565b60405180910390fd5b806000015181602001518260400151836060015184608001518560a001518660c001518760e001519850985098509850985098509850985050919395975091939597565b6060600087878787878760405160200161121e96959493929190611bf6565b60405160208183030381529060405280519060200120905061123f8161126b565b60405160200161124f9190611c52565b6040516020818303038152906040529150509695505050505050565b606060006040518060400160405280601081526020017f303132333435363738396162636465660000000000000000000000000000000081525090506000604067ffffffffffffffff8111156112ea577f4e487b7100000000000000000000000000000000000000000000000000000000600052604160045260246000fd5b6040519080825280601f01601f19166020018201604052801561131c5781602001600182028036833780820191505090505b50905060005b602081101561156a57826004868360208110611367577f4e487b7100000000000000000000000000000000000000000000000000000000600052603260045260246000fd5b1a60f81b7effffffffffffffffffffffffffffffffffffffffffffffffffffffffffffff1916901c60f81c60ff16815181106113cc577f4e487b7100000000000000000000000000000000000000000000000000000000600052603260045260246000fd5b602001015160f81c60f81b826002836113e59190611f6d565b8151811061141c577f4e487b7100000000000000000000000000000000000000000000000000000000600052603260045260246000fd5b60200101907effffffffffffffffffffffffffffffffffffffffffffffffffffffffffffff1916908160001a90535082600f60f81b86836020811061148a577f4e487b7100000000000000000000000000000000000000000000000000000000600052603260045260246000fd5b1a60f81b1660f81c60ff16815181106114cc577f4e487b7100000000000000000000000000000000000000000000000000000000600052603260045260246000fd5b602001015160f81c60f81b8260016002846114e79190611f6d565b6114f19190611f17565b81518110611528577f4e487b7100000000000000000000000000000000000000000000000000000000600052603260045260246000fd5b60200101907effffffffffffffffffffffffffffffffffffffffffffffffffffffffffffff1916908160001a905350808061156290612051565b915050611322565b508092505050919050565b8280546115819061201f565b90600052602060002090601f0160209004810192826115a357600085556115ea565b82601f106115bc57805160ff19168380011785556115ea565b828001600101855582156115ea579182015b828111156115e95782518255916020019190600101906115ce565b5b5090506115f791906115fb565b5090565b5b808211156116145760008160009055506001016115fc565b5090565b600061162b61162684611eaa565b611e79565b90508281526020810184848401111561164357600080fd5b61164e848285611fdd565b509392505050565b600082601f83011261166757600080fd5b8135611677848260208601611618565b91505092915050565b60008135905061168f81612142565b92915050565b6000602082840312156116a757600080fd5b600082013567ffffffffffffffff8111156116c157600080fd5b6116cd84828501611656565b91505092915050565b600080604083850312156116e957600080fd5b600083013567ffffffffffffffff81111561170357600080fd5b61170f85828601611656565b925050602083013567ffffffffffffffff81111561172c57600080fd5b61173885828601611656565b9150509250929050565b60008060008060008060c0878903121561175b57600080fd5b600087013567ffffffffffffffff81111561177557600080fd5b61178189828a01611656565b965050602087013567ffffffffffffffff81111561179e57600080fd5b6117aa89828a01611656565b955050604087013567ffffffffffffffff8111156117c757600080fd5b6117d389828a01611656565b94505060606117e489828a01611680565b935050608087013567ffffffffffffffff81111561180157600080fd5b61180d89828a01611656565b92505060a087013567ffffffffffffffff81111561182a57600080fd5b61183689828a01611656565b9150509295509295509295565b61184c81611fc7565b82525050565b600061185d82611eda565b6118678185611ef0565b9350611877818560208601611fec565b80840191505092915050565b600061188e82611ee5565b6118988185611efb565b93506118a8818560208601611fec565b6118b181612131565b840191505092915050565b60006118c782611ee5565b6118d18185611f0c565b93506118e1818560208601611fec565b80840191505092915050565b60006118fa601a83611efb565b91507f53747564656e742049442063616e6e6f7420626520656d7074790000000000006000830152602082019050919050565b600061193a603383611efb565b91507f4365727469666963617465206861736820616c7265616479206578697374732060008301527f666f7220616e6f746865722073747564656e74000000000000000000000000006020830152604082019050919050565b60006119a0602083611efb565b91507f47726164756174696f6e2067726164652063616e6e6f7420626520656d7074796000830152602082019050919050565b60006119e0600283611f0c565b91507f30780000000000000000000000000000000000000000000000000000000000006000830152600282019050919050565b6000611a20601c83611efb565b91507f53747564656e74206e616d652063616e6e6f7420626520656d707479000000006000830152602082019050919050565b6000611a60602e83611efb565b91507f436572746966696361746520666f7220746869732073747564656e742049442060008301527f616c7265616479206578697374730000000000000000000000000000000000006020830152604082019050919050565b6000611ac6601583611efb565b91507f4365727469666963617465206e6f7420666f756e6400000000000000000000006000830152602082019050919050565b6000611b06602083611efb565b91507f4365727469666963617465206e616d652063616e6e6f7420626520656d7074796000830152602082019050919050565b6000611b46601983611efb565b91507f4973737565642062792063616e6e6f7420626520656d707479000000000000006000830152602082019050919050565b6000611b86601883611efb565b91507f49737375652064617465206d7573742062652076616c696400000000000000006000830152602082019050919050565b611bc281611fd3565b82525050565b611bd9611bd482611fd3565b61209a565b82525050565b6000611beb82846118bc565b915081905092915050565b6000611c0282896118bc565b9150611c0e82886118bc565b9150611c1a82876118bc565b9150611c268286611bc8565b602082019150611c3682856118bc565b9150611c4282846118bc565b9150819050979650505050505050565b6000611c5d826119d3565b9150611c698284611852565b915081905092915050565b6000602082019050611c896000830184611843565b92915050565b60006020820190508181036000830152611ca98184611883565b905092915050565b6000610100820190508181036000830152611ccc818b611883565b90508181036020830152611ce0818a611883565b90508181036040830152611cf48189611883565b9050611d036060830188611bb9565b8181036080830152611d158187611883565b905081810360a0830152611d298186611883565b905081810360c0830152611d3d8185611883565b9050611d4c60e0830184611bb9565b9998505050505050505050565b60006020820190508181036000830152611d72816118ed565b9050919050565b60006020820190508181036000830152611d928161192d565b9050919050565b60006020820190508181036000830152611db281611993565b9050919050565b60006020820190508181036000830152611dd281611a13565b9050919050565b60006020820190508181036000830152611df281611a53565b9050919050565b60006020820190508181036000830152611e1281611ab9565b9050919050565b60006020820190508181036000830152611e3281611af9565b9050919050565b60006020820190508181036000830152611e5281611b39565b9050919050565b60006020820190508181036000830152611e7281611b79565b9050919050565b6000604051905081810181811067ffffffffffffffff82111715611ea057611e9f612102565b5b8060405250919050565b600067ffffffffffffffff821115611ec557611ec4612102565b5b601f19601f8301169050602081019050919050565b600081519050919050565b600081519050919050565b600081905092915050565b600082825260208201905092915050565b600081905092915050565b6000611f2282611fd3565b9150611f2d83611fd3565b9250827fffffffffffffffffffffffffffffffffffffffffffffffffffffffffffffffff03821115611f6257611f616120a4565b5b828201905092915050565b6000611f7882611fd3565b9150611f8383611fd3565b9250817fffffffffffffffffffffffffffffffffffffffffffffffffffffffffffffffff0483118215151615611fbc57611fbb6120a4565b5b828202905092915050565b60008115159050919050565b6000819050919050565b82818337600083830152505050565b60005b8381101561200a578082015181840152602081019050611fef565b83811115612019576000848401525b50505050565b6000600282049050600182168061203757607f821691505b6020821081141561204b5761204a6120d3565b5b50919050565b600061205c82611fd3565b91507fffffffffffffffffffffffffffffffffffffffffffffffffffffffffffffffff82141561208f5761208e6120a4565b5b600182019050919050565b6000819050919050565b7f4e487b7100000000000000000000000000000000000000000000000000000000600052601160045260246000fd5b7f4e487b7100000000000000000000000000000000000000000000000000000000600052602260045260246000fd5b7f4e487b7100000000000000000000000000000000000000000000000000000000600052604160045260246000fd5b6000601f19601f8301169050919050565b61214b81611fd3565b811461215657600080fd5b5056fea2646970667358221220926d4d661f06eb21e91c5b23705b0c52b8f203eb19322e69a76d4dd6ccf8170d64736f6c63430008000033",
  "immutableReferences": {},
  "source": "// SPDX-License-Identifier: MIT\r\npragma solidity ^0.8.0;\r\n\r\ncontract Certificate {\r\n    struct Cert {\r\n        string studentID;\r\n        string studentName;\r\n        string certificateName;\r\n        uint issueDate;\r\n        string issuedBy;\r\n        string graduationGrade;\r\n        string certificateHash;\r\n        uint timestamp;\r\n    }\r\n\r\n    mapping(string => Cert) public certificates;\r\n    mapping(string => string) public hashToStudent;\r\n\r\n    event CertificateAdded(\r\n        string studentID,\r\n        string studentName,\r\n        string certificateName,\r\n        uint issueDate,\r\n        string issuedBy,\r\n        string graduationGrade,\r\n        string certificateHash,\r\n        uint timestamp\r\n    );\r\n\r\n    function _generateCertificateHash(\r\n        string memory _studentID,\r\n        string memory _studentName,\r\n        string memory _certificateName,\r\n        uint _issueDate,\r\n        string memory _issuedBy,\r\n        string memory _graduationGrade\r\n    ) internal pure returns (string memory) {\r\n        bytes32 hash = keccak256(\r\n            abi.encodePacked(\r\n                _studentID,\r\n                _studentName,\r\n                _certificateName,\r\n                _issueDate,\r\n                _issuedBy,\r\n                _graduationGrade\r\n            )\r\n        );\r\n        return string(abi.encodePacked(\"0x\", bytes32ToHexString(hash)));\r\n    }\r\n\r\n    function bytes32ToHexString(bytes32 _bytes) internal pure returns (bytes memory) {\r\n        bytes memory hexChars = \"0123456789abcdef\";\r\n        bytes memory result = new bytes(64);\r\n        for (uint i = 0; i < 32; i++) {\r\n            result[i * 2] = hexChars[uint8(_bytes[i] >> 4)];\r\n            result[i * 2 + 1] = hexChars[uint8(_bytes[i] & 0x0f)];\r\n        }\r\n        return result;\r\n    }\r\n\r\n    function addCertificate(\r\n        string memory _studentID,\r\n        string memory _studentName,\r\n        string memory _certificateName,\r\n        uint _issueDate,\r\n        string memory _issuedBy,\r\n        string memory _graduationGrade\r\n    ) public {\r\n        require(bytes(_studentID).length > 0, \"Student ID cannot be empty\");\r\n        require(bytes(_studentName).length > 0, \"Student name cannot be empty\");\r\n        require(bytes(_certificateName).length > 0, \"Certificate name cannot be empty\");\r\n        require(_issueDate > 0, \"Issue date must be valid\");\r\n        require(bytes(_issuedBy).length > 0, \"Issued by cannot be empty\");\r\n        require(bytes(_graduationGrade).length > 0, \"Graduation grade cannot be empty\");\r\n\r\n        require(bytes(certificates[_studentID].studentID).length == 0, \"Certificate for this student ID already exists\");\r\n\r\n        string memory certificateHash = _generateCertificateHash(\r\n            _studentID,\r\n            _studentName,\r\n            _certificateName,\r\n            _issueDate,\r\n            _issuedBy,\r\n            _graduationGrade\r\n        );\r\n\r\n        require(bytes(hashToStudent[certificateHash]).length == 0, \"Certificate hash already exists for another student\");\r\n\r\n        certificates[_studentID] = Cert(\r\n            _studentID,\r\n            _studentName,\r\n            _certificateName,\r\n            _issueDate,\r\n            _issuedBy,\r\n            _graduationGrade,\r\n            certificateHash,\r\n            block.timestamp\r\n        );\r\n\r\n        hashToStudent[certificateHash] = _studentID;\r\n\r\n        emit CertificateAdded(\r\n            _studentID,\r\n            _studentName,\r\n            _certificateName,\r\n            _issueDate,\r\n            _issuedBy,\r\n            _graduationGrade,\r\n            certificateHash,\r\n            block.timestamp\r\n        );\r\n    }\r\n\r\n    function verifyCertificate(string memory _studentID, string memory _certificateHash) public view returns (bool) {\r\n        Cert memory cert = certificates[_studentID];\r\n        return keccak256(abi.encodePacked(cert.certificateHash)) == keccak256(abi.encodePacked(_certificateHash));\r\n    }\r\n\r\n    function getCertificate(string memory _studentID) public view returns (\r\n        string memory,\r\n        string memory,\r\n        string memory,\r\n        uint,\r\n        string memory,\r\n        string memory,\r\n        string memory,\r\n        uint\r\n    ) {\r\n        Cert memory cert = certificates[_studentID];\r\n        require(bytes(cert.studentID).length > 0, \"Certificate not found\");\r\n        return (\r\n            cert.studentID,\r\n            cert.studentName,\r\n            cert.certificateName,\r\n            cert.issueDate,\r\n            cert.issuedBy,\r\n            cert.graduationGrade,\r\n            cert.certificateHash,\r\n            cert.timestamp\r\n        );\r\n    }\r\n}",
  "sourcePath": "C:\\Users\\ACER\\nckh\\Blockchain\\contracts\\Certificate.sol",
  "compiler": {
    "name": "solc",
    "version": "0.8.0+commit.c7dfd78e.Emscripten.clang"
  },
  "schemaVersion": "3.4.16",
  "updatedAt": "2025-03-19T08:48:54.132Z",
  "networkType": "ethereum",
  "devdoc": {
    "kind": "dev",
    "methods": {},
    "version": 1
  },
  "userdoc": {
    "kind": "user",
    "methods": {},
    "version": 1
  }
}