{
  "contractName": "Certificate",
  "abi": [
    {
      "anonymous": false,
      "inputs": [
        {
          "indexed": false,
          "internalType": "bytes32",
          "name": "studentID",
          "type": "bytes32"
        },
        {
          "indexed": false,
          "internalType": "bytes32",
          "name": "studentName",
          "type": "bytes32"
        },
        {
          "indexed": false,
          "internalType": "bytes32",
          "name": "certificateName",
          "type": "bytes32"
        },
        {
          "indexed": false,
          "internalType": "uint256",
          "name": "issueDate",
          "type": "uint256"
        },
        {
          "indexed": false,
          "internalType": "bytes32",
          "name": "issuedBy",
          "type": "bytes32"
        },
        {
          "indexed": false,
          "internalType": "bytes32",
          "name": "graduationGrade",
          "type": "bytes32"
        },
        {
          "indexed": false,
          "internalType": "bytes32",
          "name": "certificateHash",
          "type": "bytes32"
        },
        {
          "indexed": false,
          "internalType": "uint256",
          "name": "timestamp",
          "type": "uint256"
        }
      ],
      "name": "CertificateAdded",
      "type": "event"
    },
    {
      "inputs": [
        {
          "internalType": "bytes32",
          "name": "",
          "type": "bytes32"
        }
      ],
      "name": "certificates",
      "outputs": [
        {
          "internalType": "bytes32",
          "name": "studentID",
          "type": "bytes32"
        },
        {
          "internalType": "bytes32",
          "name": "studentName",
          "type": "bytes32"
        },
        {
          "internalType": "bytes32",
          "name": "certificateName",
          "type": "bytes32"
        },
        {
          "internalType": "uint256",
          "name": "issueDate",
          "type": "uint256"
        },
        {
          "internalType": "bytes32",
          "name": "issuedBy",
          "type": "bytes32"
        },
        {
          "internalType": "bytes32",
          "name": "graduationGrade",
          "type": "bytes32"
        },
        {
          "internalType": "bytes32",
          "name": "certificateHash",
          "type": "bytes32"
        },
        {
          "internalType": "uint256",
          "name": "timestamp",
          "type": "uint256"
        }
      ],
      "stateMutability": "view",
      "type": "function",
      "constant": true
    },
    {
      "inputs": [
        {
          "internalType": "bytes32",
          "name": "",
          "type": "bytes32"
        }
      ],
      "name": "hashToStudent",
      "outputs": [
        {
          "internalType": "bytes32",
          "name": "",
          "type": "bytes32"
        }
      ],
      "stateMutability": "view",
      "type": "function",
      "constant": true
    },
    {
      "inputs": [
        {
          "internalType": "bytes32",
          "name": "_studentID",
          "type": "bytes32"
        }
      ],
      "name": "studentToHash",
      "outputs": [
        {
          "internalType": "bytes32",
          "name": "",
          "type": "bytes32"
        }
      ],
      "stateMutability": "view",
      "type": "function",
      "constant": true
    },
    {
      "inputs": [
        {
          "internalType": "bytes32",
          "name": "_studentID",
          "type": "bytes32"
        },
        {
          "internalType": "bytes32",
          "name": "_studentName",
          "type": "bytes32"
        },
        {
          "internalType": "bytes32",
          "name": "_certificateName",
          "type": "bytes32"
        },
        {
          "internalType": "uint256",
          "name": "_issueDate",
          "type": "uint256"
        },
        {
          "internalType": "bytes32",
          "name": "_issuedBy",
          "type": "bytes32"
        },
        {
          "internalType": "bytes32",
          "name": "_graduationGrade",
          "type": "bytes32"
        }
      ],
      "name": "addCertificate",
      "outputs": [],
      "stateMutability": "nonpayable",
      "type": "function"
    },
    {
      "inputs": [
        {
          "internalType": "bytes32",
          "name": "_studentID",
          "type": "bytes32"
        },
        {
          "internalType": "bytes32",
          "name": "_certificateHash",
          "type": "bytes32"
        }
      ],
      "name": "verifyCertificate",
      "outputs": [
        {
          "internalType": "bool",
          "name": "",
          "type": "bool"
        }
      ],
      "stateMutability": "view",
      "type": "function",
      "constant": true
    },
    {
      "inputs": [
        {
          "internalType": "bytes32",
          "name": "_studentID",
          "type": "bytes32"
        }
      ],
      "name": "getCertificate",
      "outputs": [
        {
          "internalType": "bytes32",
          "name": "",
          "type": "bytes32"
        },
        {
          "internalType": "bytes32",
          "name": "",
          "type": "bytes32"
        },
        {
          "internalType": "bytes32",
          "name": "",
          "type": "bytes32"
        },
        {
          "internalType": "uint256",
          "name": "",
          "type": "uint256"
        },
        {
          "internalType": "bytes32",
          "name": "",
          "type": "bytes32"
        },
        {
          "internalType": "bytes32",
          "name": "",
          "type": "bytes32"
        },
        {
          "internalType": "bytes32",
          "name": "",
          "type": "bytes32"
        },
        {
          "internalType": "uint256",
          "name": "",
          "type": "uint256"
        }
      ],
      "stateMutability": "view",
      "type": "function",
      "constant": true
    },
    {
      "inputs": [
        {
          "internalType": "bytes32",
          "name": "_studentID",
          "type": "bytes32"
        }
      ],
      "name": "certificateExists",
      "outputs": [
        {
          "internalType": "bool",
          "name": "",
          "type": "bool"
        }
      ],
      "stateMutability": "view",
      "type": "function",
      "constant": true
    },
    {
      "inputs": [
        {
          "internalType": "bytes32",
          "name": "_studentID",
          "type": "bytes32"
        }
      ],
      "name": "getCertificateInfo",
      "outputs": [
        {
          "internalType": "string",
          "name": "studentID",
          "type": "string"
        },
        {
          "internalType": "string",
          "name": "studentName",
          "type": "string"
        },
        {
          "internalType": "string",
          "name": "certificateName",
          "type": "string"
        },
        {
          "internalType": "uint256",
          "name": "issueDate",
          "type": "uint256"
        },
        {
          "internalType": "string",
          "name": "issuedBy",
          "type": "string"
        },
        {
          "internalType": "string",
          "name": "graduationGrade",
          "type": "string"
        },
        {
          "internalType": "bytes32",
          "name": "certificateHash",
          "type": "bytes32"
        },
        {
          "internalType": "uint256",
          "name": "timestamp",
          "type": "uint256"
        }
      ],
      "stateMutability": "view",
      "type": "function",
      "constant": true
    }
  ],
  "bytecode": "0x608060405234801561001057600080fd5b506113f3806100206000396000f3fe608060405234801561001057600080fd5b50600436106100885760003560e01c8063b440983e1161005b578063b440983e1461015b578063d20a70ee1461018b578063d818eedc146101a7578063f333fe08146101d757610088565b80631f75435d1461008d57806337f7e1dd146100bd578063742f0688146100f45780638984134b1461012b575b600080fd5b6100a760048036038101906100a29190610bcb565b61020e565b6040516100b49190611020565b60405180910390f35b6100d760048036038101906100d29190610ba2565b610291565b6040516100eb9897969594939291906110d4565b60405180910390f35b61010e60048036038101906101099190610ba2565b6103c6565b604051610122989796959493929190611056565b60405180910390f35b61014560048036038101906101409190610ba2565b61040e565b604051610152919061103b565b60405180910390f35b61017560048036038101906101709190610ba2565b61042d565b6040516101829190611020565b60405180910390f35b6101a560048036038101906101a09190610c07565b610452565b005b6101c160048036038101906101bc9190610ba2565b6107bc565b6040516101ce919061103b565b60405180910390f35b6101f160048036038101906101ec9190610ba2565b6107d4565b604051610205989796959493929190611056565b60405180910390f35b60008060008085815260200190815260200160002060405180610100016040529081600082015481526020016001820154815260200160028201548152602001600382015481526020016004820154815260200160058201548152602001600682015481526020016007820154815250509050828160c001511491505092915050565b6060806060600060608060008060008060008b8152602001908152602001600020604051806101000160405290816000820154815260200160018201548152602001600282015481526020016003820154815260200160048201548152602001600582015481526020016006820154815260200160078201548152505090506000801b8160000151141561035a576040517f08c379a000000000000000000000000000000000000000000000000000000000815260040161035190611215565b60405180910390fd5b61036781600001516108e0565b61037482602001516108e0565b61038183604001516108e0565b836060015161039385608001516108e0565b6103a08660a001516108e0565b8660c001518760e001519850985098509850985098509850985050919395975091939597565b60006020528060005260406000206000915090508060000154908060010154908060020154908060030154908060040154908060050154908060060154908060070154905088565b6000806000838152602001908152602001600020600601549050919050565b60008060001b6000808481526020019081526020016000206000015414159050919050565b6000801b861415610498576040517f08c379a000000000000000000000000000000000000000000000000000000000815260040161048f90611175565b60405180910390fd5b6000801b8514156104de576040517f08c379a00000000000000000000000000000000000000000000000000000000081526004016104d5906111d5565b60405180910390fd5b6000801b841415610524576040517f08c379a000000000000000000000000000000000000000000000000000000000815260040161051b90611235565b60405180910390fd5b60008311610567576040517f08c379a000000000000000000000000000000000000000000000000000000000815260040161055e90611275565b60405180910390fd5b6000801b8214156105ad576040517f08c379a00000000000000000000000000000000000000000000000000000000081526004016105a490611255565b60405180910390fd5b6000801b8114156105f3576040517f08c379a00000000000000000000000000000000000000000000000000000000081526004016105ea906111b5565b60405180910390fd5b6000801b600080888152602001908152602001600020600001541461064d576040517f08c379a0000000000000000000000000000000000000000000000000000000008152600401610644906111f5565b60405180910390fd5b600061065d878787878787610b39565b90506000801b6001600083815260200190815260200160002054146106b7576040517f08c379a00000000000000000000000000000000000000000000000000000000081526004016106ae90611195565b60405180910390fd5b60405180610100016040528088815260200187815260200186815260200185815260200184815260200183815260200182815260200142815250600080898152602001908152602001600020600082015181600001556020820151816001015560408201518160020155606082015181600301556080820151816004015560a0820151816005015560c0820151816006015560e082015181600701559050508660016000838152602001908152602001600020819055507fb43d81c992c5e22b447922b149e52d1a0bc88ec4376e2b43b065a9da1936ec9787878787878787426040516107ab989796959493929190611056565b60405180910390a150505050505050565b60016020528060005260406000206000915090505481565b60008060008060008060008060008060008b8152602001908152602001600020604051806101000160405290816000820154815260200160018201548152602001600282015481526020016003820154815260200160048201548152602001600582015481526020016006820154815260200160078201548152505090506000801b8160000151141561089c576040517f08c379a000000000000000000000000000000000000000000000000000000000815260040161089390611215565b60405180910390fd5b806000015181602001518260400151836060015184608001518560a001518660c001518760e001519850985098509850985098509850985050919395975091939597565b606060005b60208160ff1610801561095d5750600060f81b838260ff1660208110610934577f4e487b7100000000000000000000000000000000000000000000000000000000600052603260045260246000fd5b1a60f81b7effffffffffffffffffffffffffffffffffffffffffffffffffffffffffffff191614155b1561097557808061096d90611311565b9150506108e5565b60008160ff1667ffffffffffffffff8111156109ba577f4e487b7100000000000000000000000000000000000000000000000000000000600052604160045260246000fd5b6040519080825280601f01601f1916602001820160405280156109ec5781602001600182028036833780820191505090505b509050600091505b60208260ff16108015610a6c5750600060f81b848360ff1660208110610a43577f4e487b7100000000000000000000000000000000000000000000000000000000600052603260045260246000fd5b1a60f81b7effffffffffffffffffffffffffffffffffffffffffffffffffffffffffffff191614155b15610b2f57838260ff1660208110610aad577f4e487b7100000000000000000000000000000000000000000000000000000000600052603260045260246000fd5b1a60f81b818360ff1681518110610aed577f4e487b7100000000000000000000000000000000000000000000000000000000600052603260045260246000fd5b60200101907effffffffffffffffffffffffffffffffffffffffffffffffffffffffffffff1916908160001a9053508180610b2790611311565b9250506109f4565b8092505050919050565b6000868686868686604051602001610b5696959493929190610fb0565b6040516020818303038152906040528051906020012090509695505050505050565b600081359050610b878161138f565b92915050565b600081359050610b9c816113a6565b92915050565b600060208284031215610bb457600080fd5b6000610bc284828501610b78565b91505092915050565b60008060408385031215610bde57600080fd5b6000610bec85828601610b78565b9250506020610bfd85828601610b78565b9150509250929050565b60008060008060008060c08789031215610c2057600080fd5b6000610c2e89828a01610b78565b9650506020610c3f89828a01610b78565b9550506040610c5089828a01610b78565b9450506060610c6189828a01610b8d565b9350506080610c7289828a01610b78565b92505060a0610c8389828a01610b78565b9150509295509295509295565b610c99816112b1565b82525050565b610ca8816112bd565b82525050565b610cbf610cba826112bd565b61133b565b82525050565b6000610cd082611295565b610cda81856112a0565b9350610cea8185602086016112de565b610cf38161137e565b840191505092915050565b6000610d0b601a836112a0565b91507f53747564656e742049442063616e6e6f7420626520656d7074790000000000006000830152602082019050919050565b6000610d4b6033836112a0565b91507f4365727469666963617465206861736820616c7265616479206578697374732060008301527f666f7220616e6f746865722073747564656e74000000000000000000000000006020830152604082019050919050565b6000610db16020836112a0565b91507f47726164756174696f6e2067726164652063616e6e6f7420626520656d7074796000830152602082019050919050565b6000610df1601c836112a0565b91507f53747564656e74206e616d652063616e6e6f7420626520656d707479000000006000830152602082019050919050565b6000610e31602e836112a0565b91507f436572746966696361746520666f7220746869732073747564656e742049442060008301527f616c7265616479206578697374730000000000000000000000000000000000006020830152604082019050919050565b6000610e976015836112a0565b91507f4365727469666963617465206e6f7420666f756e6400000000000000000000006000830152602082019050919050565b6000610ed76020836112a0565b91507f4365727469666963617465206e616d652063616e6e6f7420626520656d7074796000830152602082019050919050565b6000610f176019836112a0565b91507f4973737565642062792063616e6e6f7420626520656d707479000000000000006000830152602082019050919050565b6000610f576018836112a0565b91507f49737375652064617465206d7573742062652076616c696400000000000000006000830152602082019050919050565b610f93816112c7565b82525050565b610faa610fa5826112c7565b611345565b82525050565b6000610fbc8289610cae565b602082019150610fcc8288610cae565b602082019150610fdc8287610cae565b602082019150610fec8286610f99565b602082019150610ffc8285610cae565b60208201915061100c8284610cae565b602082019150819050979650505050505050565b60006020820190506110356000830184610c90565b92915050565b60006020820190506110506000830184610c9f565b92915050565b60006101008201905061106c600083018b610c9f565b611079602083018a610c9f565b6110866040830189610c9f565b6110936060830188610f8a565b6110a06080830187610c9f565b6110ad60a0830186610c9f565b6110ba60c0830185610c9f565b6110c760e0830184610f8a565b9998505050505050505050565b60006101008201905081810360008301526110ef818b610cc5565b90508181036020830152611103818a610cc5565b905081810360408301526111178189610cc5565b90506111266060830188610f8a565b81810360808301526111388187610cc5565b905081810360a083015261114c8186610cc5565b905061115b60c0830185610c9f565b61116860e0830184610f8a565b9998505050505050505050565b6000602082019050818103600083015261118e81610cfe565b9050919050565b600060208201905081810360008301526111ae81610d3e565b9050919050565b600060208201905081810360008301526111ce81610da4565b9050919050565b600060208201905081810360008301526111ee81610de4565b9050919050565b6000602082019050818103600083015261120e81610e24565b9050919050565b6000602082019050818103600083015261122e81610e8a565b9050919050565b6000602082019050818103600083015261124e81610eca565b9050919050565b6000602082019050818103600083015261126e81610f0a565b9050919050565b6000602082019050818103600083015261128e81610f4a565b9050919050565b600081519050919050565b600082825260208201905092915050565b60008115159050919050565b6000819050919050565b6000819050919050565b600060ff82169050919050565b60005b838110156112fc5780820151818401526020810190506112e1565b8381111561130b576000848401525b50505050565b600061131c826112d1565b915060ff8214156113305761132f61134f565b5b600182019050919050565b6000819050919050565b6000819050919050565b7f4e487b7100000000000000000000000000000000000000000000000000000000600052601160045260246000fd5b6000601f19601f8301169050919050565b611398816112bd565b81146113a357600080fd5b50565b6113af816112c7565b81146113ba57600080fd5b5056fea2646970667358221220e0a2635c43127e75e32d5ccfc90cf08fe8baf1866b2491b06e11edd8c666a2fd64736f6c63430008000033",
  "immutableReferences": {},
  "source": "// SPDX-License-Identifier: MIT\r\npragma solidity ^0.8.0;\r\n\r\ncontract Certificate {\r\n    struct Cert {\r\n        bytes32 studentID;\r\n        bytes32 studentName;\r\n        bytes32 certificateName;\r\n        uint issueDate;\r\n        bytes32 issuedBy;\r\n        bytes32 graduationGrade;\r\n        bytes32 certificateHash;\r\n        uint timestamp;\r\n    }\r\n\r\n    mapping(bytes32 => Cert) public certificates;\r\n    mapping(bytes32 => bytes32) public hashToStudent;\r\n\r\n    event CertificateAdded(\r\n        bytes32 studentID,\r\n        bytes32 studentName,\r\n        bytes32 certificateName,\r\n        uint issueDate,\r\n        bytes32 issuedBy,\r\n        bytes32 graduationGrade,\r\n        bytes32 certificateHash,\r\n        uint timestamp\r\n    );\r\n\r\n    function studentToHash(bytes32 _studentID) public view returns (bytes32) {\r\n        return certificates[_studentID].certificateHash;\r\n    }\r\n\r\n    function _generateCertificateHash(\r\n        bytes32 _studentID,\r\n        bytes32 _studentName,\r\n        bytes32 _certificateName,\r\n        uint _issueDate,\r\n        bytes32 _issuedBy,\r\n        bytes32 _graduationGrade\r\n    ) internal pure returns (bytes32) {\r\n        return keccak256(abi.encodePacked(\r\n            _studentID,\r\n            _studentName,\r\n            _certificateName,\r\n            _issueDate,\r\n            _issuedBy,\r\n            _graduationGrade\r\n        ));\r\n    }\r\n\r\n    function addCertificate(\r\n        bytes32 _studentID,\r\n        bytes32 _studentName,\r\n        bytes32 _certificateName,\r\n        uint _issueDate,\r\n        bytes32 _issuedBy,\r\n        bytes32 _graduationGrade\r\n    ) public {\r\n        require(_studentID != bytes32(0), \"Student ID cannot be empty\");\r\n        require(_studentName != bytes32(0), \"Student name cannot be empty\");\r\n        require(_certificateName != bytes32(0), \"Certificate name cannot be empty\");\r\n        require(_issueDate > 0, \"Issue date must be valid\");\r\n        require(_issuedBy != bytes32(0), \"Issued by cannot be empty\");\r\n        require(_graduationGrade != bytes32(0), \"Graduation grade cannot be empty\");\r\n\r\n        require(certificates[_studentID].studentID == bytes32(0), \"Certificate for this student ID already exists\");\r\n\r\n        bytes32 certificateHash = _generateCertificateHash(\r\n            _studentID,\r\n            _studentName,\r\n            _certificateName,\r\n            _issueDate,\r\n            _issuedBy,\r\n            _graduationGrade\r\n        );\r\n\r\n        require(hashToStudent[certificateHash] == bytes32(0), \"Certificate hash already exists for another student\");\r\n\r\n        certificates[_studentID] = Cert(\r\n            _studentID,\r\n            _studentName,\r\n            _certificateName,\r\n            _issueDate,\r\n            _issuedBy,\r\n            _graduationGrade,\r\n            certificateHash,\r\n            block.timestamp\r\n        );\r\n\r\n        hashToStudent[certificateHash] = _studentID;\r\n\r\n        emit CertificateAdded(\r\n            _studentID,\r\n            _studentName,\r\n            _certificateName,\r\n            _issueDate,\r\n            _issuedBy,\r\n            _graduationGrade,\r\n            certificateHash,\r\n            block.timestamp\r\n        );\r\n    }\r\n\r\n    function verifyCertificate(bytes32 _studentID, bytes32 _certificateHash) public view returns (bool) {\r\n        Cert memory cert = certificates[_studentID];\r\n        return cert.certificateHash == _certificateHash;\r\n    }\r\n\r\n    function getCertificate(bytes32 _studentID) public view returns (\r\n        bytes32,\r\n        bytes32,\r\n        bytes32,\r\n        uint,\r\n        bytes32,\r\n        bytes32,\r\n        bytes32,\r\n        uint\r\n    ) {\r\n        Cert memory cert = certificates[_studentID];\r\n        require(cert.studentID != bytes32(0), \"Certificate not found\");\r\n        return (\r\n            cert.studentID,\r\n            cert.studentName,\r\n            cert.certificateName,\r\n            cert.issueDate,\r\n            cert.issuedBy,\r\n            cert.graduationGrade,\r\n            cert.certificateHash,\r\n            cert.timestamp\r\n        );\r\n    }\r\n\r\n    function certificateExists(bytes32 _studentID) public view returns (bool) {\r\n        return certificates[_studentID].studentID != bytes32(0);\r\n    }\r\n\r\n    function getCertificateInfo(bytes32 _studentID) public view returns (\r\n        string memory studentID,\r\n        string memory studentName,\r\n        string memory certificateName,\r\n        uint issueDate,\r\n        string memory issuedBy,\r\n        string memory graduationGrade,\r\n        bytes32 certificateHash,\r\n        uint timestamp\r\n    ) {\r\n        Cert memory cert = certificates[_studentID];\r\n        require(cert.studentID != bytes32(0), \"Certificate not found\");\r\n        \r\n        return (\r\n            _bytes32ToString(cert.studentID),\r\n            _bytes32ToString(cert.studentName),\r\n            _bytes32ToString(cert.certificateName),\r\n            cert.issueDate,\r\n            _bytes32ToString(cert.issuedBy),\r\n            _bytes32ToString(cert.graduationGrade),\r\n            cert.certificateHash,\r\n            cert.timestamp\r\n        );\r\n    }\r\n\r\n    function _bytes32ToString(bytes32 _bytes) internal pure returns (string memory) {\r\n        uint8 i = 0;\r\n        while(i < 32 && _bytes[i] != 0) {\r\n            i++;\r\n        }\r\n        bytes memory bytesArray = new bytes(i);\r\n        for (i = 0; i < 32 && _bytes[i] != 0; i++) {\r\n            bytesArray[i] = _bytes[i];\r\n        }\r\n        return string(bytesArray);\r\n    }\r\n}\r\n",
  "sourcePath": "D:\\nckh\\Blockchain\\contracts\\Certificate.sol",
  "compiler": {
    "name": "solc",
    "version": "0.8.0+commit.c7dfd78e.Emscripten.clang"
  },
  "schemaVersion": "3.4.16",
  "updatedAt": "2025-06-16T08:24:28.496Z",
  "networkType": "ethereum",
  "devdoc": {
    "kind": "dev",
    "methods": {},
    "version": 1
  },
  "userdoc": {
    "kind": "user",
    "methods": {},
    "version": 1
  }
}